{
  "_format": "hh-sol-artifact-1",
  "contractName": "LootBox",
  "sourceName": "contracts/LootBox.sol",
  "abi": [
    {
      "inputs": [],
      "stateMutability": "nonpayable",
      "type": "constructor"
    },
    {
      "anonymous": false,
      "inputs": [
        {
          "indexed": true,
          "internalType": "address",
          "name": "owner",
          "type": "address"
        },
        {
          "indexed": true,
          "internalType": "address",
          "name": "approved",
          "type": "address"
        },
        {
          "indexed": true,
          "internalType": "uint256",
          "name": "tokenId",
          "type": "uint256"
        }
      ],
      "name": "Approval",
      "type": "event"
    },
    {
      "anonymous": false,
      "inputs": [
        {
          "indexed": true,
          "internalType": "address",
          "name": "owner",
          "type": "address"
        },
        {
          "indexed": true,
          "internalType": "address",
          "name": "operator",
          "type": "address"
        },
        {
          "indexed": false,
          "internalType": "bool",
          "name": "approved",
          "type": "bool"
        }
      ],
      "name": "ApprovalForAll",
      "type": "event"
    },
    {
      "anonymous": false,
      "inputs": [
        {
          "indexed": true,
          "internalType": "address",
          "name": "previousOwner",
          "type": "address"
        },
        {
          "indexed": true,
          "internalType": "address",
          "name": "newOwner",
          "type": "address"
        }
      ],
      "name": "OwnershipTransferred",
      "type": "event"
    },
    {
      "anonymous": false,
      "inputs": [
        {
          "indexed": false,
          "internalType": "uint256",
          "name": "rewardId",
          "type": "uint256"
        },
        {
          "indexed": false,
          "internalType": "address",
          "name": "redemeer",
          "type": "address"
        }
      ],
      "name": "RedeemedLootBox",
      "type": "event"
    },
    {
      "anonymous": false,
      "inputs": [
        {
          "indexed": true,
          "internalType": "address",
          "name": "from",
          "type": "address"
        },
        {
          "indexed": true,
          "internalType": "address",
          "name": "to",
          "type": "address"
        },
        {
          "indexed": true,
          "internalType": "uint256",
          "name": "tokenId",
          "type": "uint256"
        }
      ],
      "name": "Transfer",
      "type": "event"
    },
    {
      "inputs": [],
      "name": "MINTER_ROLE",
      "outputs": [
        {
          "internalType": "bytes32",
          "name": "",
          "type": "bytes32"
        }
      ],
      "stateMutability": "view",
      "type": "function"
    },
    {
      "inputs": [
        {
          "internalType": "uint256",
          "name": "tokenId",
          "type": "uint256"
        },
        {
          "internalType": "uint256",
          "name": "amount",
          "type": "uint256"
        },
        {
          "internalType": "address",
          "name": "burner",
          "type": "address"
        },
        {
          "internalType": "bytes",
          "name": "signature",
          "type": "bytes"
        }
      ],
      "name": "_validateSignToRedeem",
      "outputs": [
        {
          "internalType": "address",
          "name": "",
          "type": "address"
        }
      ],
      "stateMutability": "view",
      "type": "function"
    },
    {
      "inputs": [
        {
          "internalType": "uint256",
          "name": "rewardId",
          "type": "uint256"
        },
        {
          "internalType": "string",
          "name": "uri",
          "type": "string"
        },
        {
          "internalType": "address",
          "name": "signer",
          "type": "address"
        },
        {
          "internalType": "bytes",
          "name": "signature",
          "type": "bytes"
        }
      ],
      "name": "_validateSigner",
      "outputs": [
        {
          "internalType": "address",
          "name": "",
          "type": "address"
        }
      ],
      "stateMutability": "view",
      "type": "function"
    },
    {
      "inputs": [
        {
          "internalType": "address",
          "name": "to",
          "type": "address"
        },
        {
          "internalType": "uint256",
          "name": "tokenId",
          "type": "uint256"
        }
      ],
      "name": "approve",
      "outputs": [],
      "stateMutability": "nonpayable",
      "type": "function"
    },
    {
      "inputs": [
        {
          "internalType": "address",
          "name": "owner",
          "type": "address"
        }
      ],
      "name": "balanceOf",
      "outputs": [
        {
          "internalType": "uint256",
          "name": "",
          "type": "uint256"
        }
      ],
      "stateMutability": "view",
      "type": "function"
    },
    {
      "inputs": [
        {
          "internalType": "uint256",
          "name": "tokenId",
          "type": "uint256"
        },
        {
          "internalType": "uint256",
          "name": "amount",
          "type": "uint256"
        },
        {
          "internalType": "bytes",
          "name": "signature",
          "type": "bytes"
        }
      ],
      "name": "burnAndReveal",
      "outputs": [],
      "stateMutability": "nonpayable",
      "type": "function"
    },
    {
      "inputs": [
        {
          "internalType": "uint256",
          "name": "tokenId",
          "type": "uint256"
        }
      ],
      "name": "getApproved",
      "outputs": [
        {
          "internalType": "address",
          "name": "",
          "type": "address"
        }
      ],
      "stateMutability": "view",
      "type": "function"
    },
    {
      "inputs": [
        {
          "internalType": "address",
          "name": "owner",
          "type": "address"
        },
        {
          "internalType": "address",
          "name": "operator",
          "type": "address"
        }
      ],
      "name": "isApprovedForAll",
      "outputs": [
        {
          "internalType": "bool",
          "name": "",
          "type": "bool"
        }
      ],
      "stateMutability": "view",
      "type": "function"
    },
    {
      "inputs": [],
      "name": "name",
      "outputs": [
        {
          "internalType": "string",
          "name": "",
          "type": "string"
        }
      ],
      "stateMutability": "view",
      "type": "function"
    },
    {
      "inputs": [],
      "name": "owner",
      "outputs": [
        {
          "internalType": "address",
          "name": "",
          "type": "address"
        }
      ],
      "stateMutability": "view",
      "type": "function"
    },
    {
      "inputs": [
        {
          "internalType": "uint256",
          "name": "tokenId",
          "type": "uint256"
        }
      ],
      "name": "ownerOf",
      "outputs": [
        {
          "internalType": "address",
          "name": "",
          "type": "address"
        }
      ],
      "stateMutability": "view",
      "type": "function"
    },
    {
      "inputs": [
        {
          "internalType": "uint256",
          "name": "rewardId",
          "type": "uint256"
        },
        {
          "internalType": "string",
          "name": "uri",
          "type": "string"
        },
        {
          "internalType": "bytes",
          "name": "signature",
          "type": "bytes"
        }
      ],
      "name": "redeem",
      "outputs": [],
      "stateMutability": "payable",
      "type": "function"
    },
    {
      "inputs": [],
      "name": "renounceOwnership",
      "outputs": [],
      "stateMutability": "nonpayable",
      "type": "function"
    },
    {
      "inputs": [
        {
          "internalType": "address",
          "name": "from",
          "type": "address"
        },
        {
          "internalType": "address",
          "name": "to",
          "type": "address"
        },
        {
          "internalType": "uint256",
          "name": "tokenId",
          "type": "uint256"
        }
      ],
      "name": "safeTransferFrom",
      "outputs": [],
      "stateMutability": "nonpayable",
      "type": "function"
    },
    {
      "inputs": [
        {
          "internalType": "address",
          "name": "from",
          "type": "address"
        },
        {
          "internalType": "address",
          "name": "to",
          "type": "address"
        },
        {
          "internalType": "uint256",
          "name": "tokenId",
          "type": "uint256"
        },
        {
          "internalType": "bytes",
          "name": "_data",
          "type": "bytes"
        }
      ],
      "name": "safeTransferFrom",
      "outputs": [],
      "stateMutability": "nonpayable",
      "type": "function"
    },
    {
      "inputs": [
        {
          "internalType": "address",
          "name": "operator",
          "type": "address"
        },
        {
          "internalType": "bool",
          "name": "approved",
          "type": "bool"
        }
      ],
      "name": "setApprovalForAll",
      "outputs": [],
      "stateMutability": "nonpayable",
      "type": "function"
    },
    {
      "inputs": [
        {
          "internalType": "address",
          "name": "_cancellationRegistry",
          "type": "address"
        }
      ],
      "name": "setRegistryContracts",
      "outputs": [],
      "stateMutability": "nonpayable",
      "type": "function"
    },
    {
      "inputs": [
        {
          "internalType": "bytes4",
          "name": "interfaceId",
          "type": "bytes4"
        }
      ],
      "name": "supportsInterface",
      "outputs": [
        {
          "internalType": "bool",
          "name": "",
          "type": "bool"
        }
      ],
      "stateMutability": "view",
      "type": "function"
    },
    {
      "inputs": [],
      "name": "symbol",
      "outputs": [
        {
          "internalType": "string",
          "name": "",
          "type": "string"
        }
      ],
      "stateMutability": "view",
      "type": "function"
    },
    {
      "inputs": [
        {
          "internalType": "uint256",
          "name": "",
          "type": "uint256"
        }
      ],
      "name": "tokenBurner",
      "outputs": [
        {
          "internalType": "address",
          "name": "",
          "type": "address"
        }
      ],
      "stateMutability": "view",
      "type": "function"
    },
    {
      "inputs": [
        {
          "internalType": "uint256",
          "name": "index",
          "type": "uint256"
        }
      ],
      "name": "tokenByIndex",
      "outputs": [
        {
          "internalType": "uint256",
          "name": "",
          "type": "uint256"
        }
      ],
      "stateMutability": "view",
      "type": "function"
    },
    {
      "inputs": [
        {
          "internalType": "address",
          "name": "owner",
          "type": "address"
        },
        {
          "internalType": "uint256",
          "name": "index",
          "type": "uint256"
        }
      ],
      "name": "tokenOfOwnerByIndex",
      "outputs": [
        {
          "internalType": "uint256",
          "name": "",
          "type": "uint256"
        }
      ],
      "stateMutability": "view",
      "type": "function"
    },
    {
      "inputs": [
        {
          "internalType": "uint256",
          "name": "tokenId",
          "type": "uint256"
        }
      ],
      "name": "tokenURI",
      "outputs": [
        {
          "internalType": "string",
          "name": "",
          "type": "string"
        }
      ],
      "stateMutability": "view",
      "type": "function"
    },
    {
      "inputs": [],
      "name": "totalSupply",
      "outputs": [
        {
          "internalType": "uint256",
          "name": "",
          "type": "uint256"
        }
      ],
      "stateMutability": "view",
      "type": "function"
    },
    {
      "inputs": [
        {
          "internalType": "address",
          "name": "from",
          "type": "address"
        },
        {
          "internalType": "address",
          "name": "to",
          "type": "address"
        },
        {
          "internalType": "uint256",
          "name": "tokenId",
          "type": "uint256"
        }
      ],
      "name": "transferFrom",
      "outputs": [],
      "stateMutability": "nonpayable",
      "type": "function"
    },
    {
      "inputs": [
        {
          "internalType": "address",
          "name": "newOwner",
          "type": "address"
        }
      ],
      "name": "transferOwnership",
      "outputs": [],
      "stateMutability": "nonpayable",
      "type": "function"
    }
  ],
  "bytecode": "0x7f8b73c3c69bb8fe3d512ecc4cf759cc79239f7b179b0ffacaa9a75d522b39400f600f819055600b6080526a42756c6c6965766572736560a81b60a052610100604052600160c052603160f81b60e052620000a1907f04e1a141bd284a6be4d4cd3427d70220b8d58f3a2b00e586534bbde39c592b8d7fc89efdaa54c0f20c7adf612882df0950f5a951637e0307cdcb4c672f298b8bc646306101206200023f565b60405160208183030381529060405280519060200120601055348015620000c757600080fd5b50604080518082018252600780825266098dedee884def60cb1b6020808401828152855180870190965292855284015281519192916200010a9160009162000199565b5080516200012090600190602084019062000199565b5050506200013d620001376200014360201b60201c565b62000147565b620002a8565b3390565b600a80546001600160a01b038381166001600160a01b0319831681179093556040519116919082907f8be0079c531659141344cd1fd0a4f28419497f9722a3daafe3b4186f6b6457e090600090a35050565b828054620001a7906200026b565b90600052602060002090601f016020900481019282620001cb576000855562000216565b82601f10620001e657805160ff191683800117855562000216565b8280016001018555821562000216579182015b8281111562000216578251825591602001919060010190620001f9565b506200022492915062000228565b5090565b5b8082111562000224576000815560010162000229565b9485526020850193909352604084019190915260608301526001600160a01b0316608082015260a00190565b6002810460018216806200028057607f821691505b60208210811415620002a257634e487b7160e01b600052602260045260246000fd5b50919050565b6129df80620002b86000396000f3fe6080604052600436106101805760003560e01c806370a08231116100d1578063a22cb4651161008a578063c87b56dd11610064578063c87b56dd14610440578063d539139314610460578063e985e9c514610475578063f2fde38b1461049557610180565b8063a22cb465146103e0578063a2bd468114610400578063b88d4fde1461042057610180565b806370a0823114610341578063715018a6146103615780638b1cc4f4146103765780638da5cb5b146103965780638eb1eddb146103ab57806395d89b41146103cb57610180565b806318160ddd1161013e57806342842e0e1161011857806342842e0e146102ce5780634f6ccce7146102ee5780635e5455ec1461030e5780636352211e1461032157610180565b806318160ddd1461026c57806323b872dd1461028e5780632f745c59146102ae57610180565b8062aee1d81461018557806301ffc9a7146101bb57806306fdde03146101e8578063081812fc1461020a578063095ea7b31461022a5780630babbc9a1461024c575b600080fd5b34801561019157600080fd5b506101a56101a0366004611ec2565b6104b5565b6040516101b2919061209c565b60405180910390f35b3480156101c757600080fd5b506101db6101d6366004611e72565b61053e565b6040516101b291906120ed565b3480156101f457600080fd5b506101fd61056b565b6040516101b29190612167565b34801561021657600080fd5b506101a5610225366004611eaa565b6105fd565b34801561023657600080fd5b5061024a610245366004611e2d565b610649565b005b34801561025857600080fd5b5061024a610267366004611fe2565b6106e1565b34801561027857600080fd5b50610281610700565b6040516101b291906120f8565b34801561029a57600080fd5b5061024a6102a9366004611d56565b610706565b3480156102ba57600080fd5b506102816102c9366004611e2d565b61073e565b3480156102da57600080fd5b5061024a6102e9366004611d56565b610790565b3480156102fa57600080fd5b50610281610309366004611eaa565b6107ab565b61024a61031c366004611f31565b610806565b34801561032d57600080fd5b506101a561033c366004611eaa565b6109cc565b34801561034d57600080fd5b5061028161035c366004611d0a565b610a01565b34801561036d57600080fd5b5061024a610a45565b34801561038257600080fd5b506101a5610391366004611eaa565b610a90565b3480156103a257600080fd5b506101a5610aab565b3480156103b757600080fd5b5061024a6103c6366004611d0a565b610aba565b3480156103d757600080fd5b506101fd610b1b565b3480156103ec57600080fd5b5061024a6103fb366004611df7565b610b2a565b34801561040c57600080fd5b506101a561041b366004611f9b565b610b40565b34801561042c57600080fd5b5061024a61043b366004611d91565b610b7f565b34801561044c57600080fd5b506101fd61045b366004611eaa565b610bb8565b34801561046c57600080fd5b50610281610caf565b34801561048157600080fd5b506101db610490366004611d24565b610cd3565b3480156104a157600080fd5b5061024a6104b0366004611d0a565b610d01565b6000807fa4f6ba2d7212edf231fa7caa48584da82594e87a7898ceb94390a5a09dad21989050600081878688805190602001206040516020016104fb9493929190612101565b604051602081830303815290604052805190602001209050600061052160105483610d72565b9050600061052f8287610da5565b9450505050505b949350505050565b60006001600160e01b0319821663780e9d6360e01b1480610563575061056382610dc9565b90505b919050565b60606000805461057a906128d9565b80601f01602080910402602001604051908101604052809291908181526020018280546105a6906128d9565b80156105f35780601f106105c8576101008083540402835291602001916105f3565b820191906000526020600020905b8154815290600101906020018083116105d657829003601f168201915b5050505050905090565b600061060882610e09565b61062d5760405162461bcd60e51b81526004016106249061267a565b60405180910390fd5b506000908152600460205260409020546001600160a01b031690565b6000610654826109cc565b9050806001600160a01b0316836001600160a01b031614156106885760405162461bcd60e51b81526004016106249061274a565b806001600160a01b031661069a610e26565b6001600160a01b031614806106b657506106b681610490610e26565b6106d25760405162461bcd60e51b815260040161062490612478565b6106dc8383610e2a565b505050565b60006106ef84843385610b40565b90506106fa84610e98565b50505050565b600d5490565b610717610711610e26565b82610f47565b6107335760405162461bcd60e51b81526004016106249061278b565b6106dc838383610fcb565b600061074983610a01565b82106107675760405162461bcd60e51b815260040161062490612210565b506001600160a01b03919091166000908152600660209081526040808320938352929052205490565b6106dc83838360405180602001604052806000815250610b7f565b60006107b56110fe565b82106107d35760405162461bcd60e51b8152600401610624906127dc565b600882815481106107f457634e487b7160e01b600052603260045260246000fd5b90600052602060002001549050919050565b600e5460405163563166a960e01b81526001600160a01b039091169063563166a990610836908490600401612167565b60206040518083038186803b15801561084e57600080fd5b505afa158015610862573d6000803e3d6000fd5b505050506040513d601f19601f820116820180604052508101906108869190611e56565b6108a25760405162461bcd60e51b815260040161062490612828565b60006108b0848433856104b5565b90506108ba610aab565b6001600160a01b0316816001600160a01b0316146108ea5760405162461bcd60e51b8152600401610624906121b1565b60006108f4610700565b6108ff90600161286a565b905061090b3382611104565b61091581856111eb565b600d805490600061092583612914565b9091555050600e54604051632e442d9960e21b81526001600160a01b039091169063b910b6649061095a908690600401612167565b600060405180830381600087803b15801561097457600080fd5b505af1158015610988573d6000803e3d6000fd5b505050507fbcef3499c9aad98048e89f5d77ea084f08539b62504c45539ebf85f2d1f4023085336040516109bd929190612853565b60405180910390a15050505050565b6000818152600260205260408120546001600160a01b0316806105635760405162461bcd60e51b81526004016106249061251f565b60006001600160a01b038216610a295760405162461bcd60e51b8152600401610624906124d5565b506001600160a01b031660009081526003602052604090205490565b610a4d610e26565b6001600160a01b0316610a5e610aab565b6001600160a01b031614610a845760405162461bcd60e51b8152600401610624906126c6565b610a8e600061122f565b565b600b602052600090815260409020546001600160a01b031681565b600a546001600160a01b031690565b610ac2610e26565b6001600160a01b0316610ad3610aab565b6001600160a01b031614610af95760405162461bcd60e51b8152600401610624906126c6565b600e80546001600160a01b0319166001600160a01b0392909216919091179055565b60606001805461057a906128d9565b610b3c610b35610e26565b8383611281565b5050565b6000807fa3dbbba575ad305357c3f054bb689abe851d6bc0de669124aba66ede75b866e490506000818787876040516020016104fb9493929190612125565b610b90610b8a610e26565b83610f47565b610bac5760405162461bcd60e51b81526004016106249061278b565b6106fa84848484611324565b6000818152600c6020526040812080546060929190610bd6906128d9565b80601f0160208091040260200160405190810160405280929190818152602001828054610c02906128d9565b8015610c4f5780601f10610c2457610100808354040283529160200191610c4f565b820191906000526020600020905b815481529060010190602001808311610c3257829003601f168201915b505050505090506000610c60611357565b9050805160001415610c7457509050610566565b815115610ca6578082604051602001610c8e929190612052565b60405160208183030381529060405292505050610566565b61053684611369565b7f9f2df0fed2c77648de5860a4cc508cd0818c85b8b8a1ab4ceeef8d981c8956a681565b6001600160a01b03918216600090815260056020908152604080832093909416825291909152205460ff1690565b610d09610e26565b6001600160a01b0316610d1a610aab565b6001600160a01b031614610d405760405162461bcd60e51b8152600401610624906126c6565b6001600160a01b038116610d665760405162461bcd60e51b8152600401610624906122ad565b610d6f8161122f565b50565b60008282604051602001610d87929190612081565b60405160208183030381529060405280519060200120905092915050565b6000806000610db485856113ec565b91509150610dc18161145c565b509392505050565b60006001600160e01b031982166380ac58cd60e01b1480610dfa57506001600160e01b03198216635b5e139f60e01b145b80610563575061056382611589565b6000908152600260205260409020546001600160a01b0316151590565b3390565b600081815260046020526040902080546001600160a01b0319166001600160a01b0384169081179091558190610e5f826109cc565b6001600160a01b03167f8c5be1e5ebec7d5bd14f71427d1e84f3dd0314c0f7b2291e5b200ac8c7c3b92560405160405180910390a45050565b6000610ea3826109cc565b9050610eb1816000846115a2565b610ebc600083610e2a565b6001600160a01b0381166000908152600360205260408120805460019290610ee5908490612896565b909155505060008281526002602052604080822080546001600160a01b0319169055518391906001600160a01b038416907fddf252ad1be2c89b69c2b068fc378daa952ba7f163c4a11628f55a4df523b3ef908390a4610b3c816000846106dc565b6000610f5282610e09565b610f6e5760405162461bcd60e51b81526004016106249061242c565b6000610f79836109cc565b9050806001600160a01b0316846001600160a01b03161480610fa05750610fa08185610cd3565b806105365750836001600160a01b0316610fb9846105fd565b6001600160a01b031614949350505050565b826001600160a01b0316610fde826109cc565b6001600160a01b0316146110045760405162461bcd60e51b8152600401610624906122f3565b6001600160a01b03821661102a5760405162461bcd60e51b81526004016106249061236f565b6110358383836115a2565b611040600082610e2a565b6001600160a01b0383166000908152600360205260408120805460019290611069908490612896565b90915550506001600160a01b038216600090815260036020526040812080546001929061109790849061286a565b909155505060008181526002602052604080822080546001600160a01b0319166001600160a01b0386811691821790925591518493918716917fddf252ad1be2c89b69c2b068fc378daa952ba7f163c4a11628f55a4df523b3ef91a46106dc8383836106dc565b60085490565b6001600160a01b03821661112a5760405162461bcd60e51b8152600401610624906125f8565b61113381610e09565b156111505760405162461bcd60e51b815260040161062490612338565b61115c600083836115a2565b6001600160a01b038216600090815260036020526040812080546001929061118590849061286a565b909155505060008181526002602052604080822080546001600160a01b0319166001600160a01b03861690811790915590518392907fddf252ad1be2c89b69c2b068fc378daa952ba7f163c4a11628f55a4df523b3ef908290a4610b3c600083836106dc565b6111f482610e09565b6112105760405162461bcd60e51b815260040161062490612568565b6000828152600c6020908152604090912082516106dc92840190611bd3565b600a80546001600160a01b038381166001600160a01b0319831681179093556040519116919082907f8be0079c531659141344cd1fd0a4f28419497f9722a3daafe3b4186f6b6457e090600090a35050565b816001600160a01b0316836001600160a01b031614156112b35760405162461bcd60e51b8152600401610624906123b3565b6001600160a01b0383811660008181526005602090815260408083209487168084529490915290819020805460ff1916851515179055517f17307eab39ab6107e8899845ad3d59bd9653f200f220920489ca2b5937696c31906113179085906120ed565b60405180910390a3505050565b61132f848484610fcb565b61133b848484846115f1565b6106fa5760405162461bcd60e51b81526004016106249061225b565b60408051602081019091526000815290565b606061137482610e09565b6113905760405162461bcd60e51b8152600401610624906126fb565b600061139a611357565b905060008151116113ba57604051806020016040528060008152506113e5565b806113c484611709565b6040516020016113d5929190612052565b6040516020818303038152906040525b9392505050565b6000808251604114156114235760208301516040840151606085015160001a61141787828585611824565b94509450505050611455565b82516040141561144d5760208301516040840151611442868383611904565b935093505050611455565b506000905060025b9250929050565b600081600481111561147e57634e487b7160e01b600052602160045260246000fd5b141561148957610d6f565b60018160048111156114ab57634e487b7160e01b600052602160045260246000fd5b14156114c95760405162461bcd60e51b81526004016106249061217a565b60028160048111156114eb57634e487b7160e01b600052602160045260246000fd5b14156115095760405162461bcd60e51b8152600401610624906121d9565b600381600481111561152b57634e487b7160e01b600052602160045260246000fd5b14156115495760405162461bcd60e51b8152600401610624906123ea565b600481600481111561156b57634e487b7160e01b600052602160045260246000fd5b1415610d6f5760405162461bcd60e51b8152600401610624906125b6565b6001600160e01b031981166301ffc9a760e01b14919050565b6115ad83838361193d565b6001600160a01b038316156106dc5760006115c7826109cc565b90506001600160a01b03811633146106fa5760405162461bcd60e51b81526004016106249061262d565b6000611605846001600160a01b03166119c6565b1561170157836001600160a01b031663150b7a02611621610e26565b8786866040518563ffffffff1660e01b815260040161164394939291906120b0565b602060405180830381600087803b15801561165d57600080fd5b505af192505050801561168d575060408051601f3d908101601f1916820190925261168a91810190611e8e565b60015b6116e7573d8080156116bb576040519150601f19603f3d011682016040523d82523d6000602084013e6116c0565b606091505b5080516116df5760405162461bcd60e51b81526004016106249061225b565b805181602001fd5b6001600160e01b031916630a85bd0160e11b149050610536565b506001610536565b60608161172e57506040805180820190915260018152600360fc1b6020820152610566565b8160005b8115611758578061174281612914565b91506117519050600a83612882565b9150611732565b60008167ffffffffffffffff81111561178157634e487b7160e01b600052604160045260246000fd5b6040519080825280601f01601f1916602001820160405280156117ab576020820181803683370190505b5090505b8415610536576117c0600183612896565b91506117cd600a8661292f565b6117d890603061286a565b60f81b8183815181106117fb57634e487b7160e01b600052603260045260246000fd5b60200101906001600160f81b031916908160001a90535061181d600a86612882565b94506117af565b6000807f7fffffffffffffffffffffffffffffff5d576e7357a4501ddfe92f46681b20a083111561185b57506000905060036118fb565b8460ff16601b1415801561187357508460ff16601c14155b1561188457506000905060046118fb565b6000600187878787604051600081526020016040526040516118a99493929190612149565b6020604051602081039080840390855afa1580156118cb573d6000803e3d6000fd5b5050604051601f1901519150506001600160a01b0381166118f4576000600192509250506118fb565b9150600090505b94509492505050565b6000806001600160ff1b0383168161192160ff86901c601b61286a565b905061192f87828885611824565b935093505050935093915050565b6119488383836106dc565b6001600160a01b0383166119645761195f816119d5565b611987565b816001600160a01b0316836001600160a01b031614611987576119878382611a19565b6001600160a01b0382166119a35761199e81611ab6565b6106dc565b826001600160a01b0316826001600160a01b0316146106dc576106dc8282611b8f565b6001600160a01b03163b151590565b600880546000838152600960205260408120829055600182018355919091527ff3f7a9fe364faab93b216da50a3214154f22a0a2b415b23a84c8169e8b636ee30155565b60006001611a2684610a01565b611a309190612896565b600083815260076020526040902054909150808214611a83576001600160a01b03841660009081526006602090815260408083208584528252808320548484528184208190558352600790915290208190555b5060009182526007602090815260408084208490556001600160a01b039094168352600681528383209183525290812055565b600854600090611ac890600190612896565b60008381526009602052604081205460088054939450909284908110611afe57634e487b7160e01b600052603260045260246000fd5b906000526020600020015490508060088381548110611b2d57634e487b7160e01b600052603260045260246000fd5b6000918252602080832090910192909255828152600990915260408082208490558582528120556008805480611b7357634e487b7160e01b600052603160045260246000fd5b6001900381819060005260206000200160009055905550505050565b6000611b9a83610a01565b6001600160a01b039093166000908152600660209081526040808320868452825280832085905593825260079052919091209190915550565b828054611bdf906128d9565b90600052602060002090601f016020900481019282611c015760008555611c47565b82601f10611c1a57805160ff1916838001178555611c47565b82800160010185558215611c47579182015b82811115611c47578251825591602001919060010190611c2c565b50611c53929150611c57565b5090565b5b80821115611c535760008155600101611c58565b80356001600160a01b038116811461056657600080fd5b600082601f830112611c93578081fd5b813567ffffffffffffffff80821115611cae57611cae61296f565b604051601f8301601f19908116603f01168101908282118183101715611cd657611cd661296f565b81604052838152866020858801011115611cee578485fd5b8360208701602083013792830160200193909352509392505050565b600060208284031215611d1b578081fd5b6113e582611c6c565b60008060408385031215611d36578081fd5b611d3f83611c6c565b9150611d4d60208401611c6c565b90509250929050565b600080600060608486031215611d6a578081fd5b611d7384611c6c565b9250611d8160208501611c6c565b9150604084013590509250925092565b60008060008060808587031215611da6578081fd5b611daf85611c6c565b9350611dbd60208601611c6c565b925060408501359150606085013567ffffffffffffffff811115611ddf578182fd5b611deb87828801611c83565b91505092959194509250565b60008060408385031215611e09578182fd5b611e1283611c6c565b91506020830135611e2281612985565b809150509250929050565b60008060408385031215611e3f578182fd5b611e4883611c6c565b946020939093013593505050565b600060208284031215611e67578081fd5b81516113e581612985565b600060208284031215611e83578081fd5b81356113e581612993565b600060208284031215611e9f578081fd5b81516113e581612993565b600060208284031215611ebb578081fd5b5035919050565b60008060008060808587031215611ed7578384fd5b84359350602085013567ffffffffffffffff80821115611ef5578485fd5b611f0188838901611c83565b9450611f0f60408801611c6c565b93506060870135915080821115611f24578283fd5b50611deb87828801611c83565b600080600060608486031215611f45578283fd5b83359250602084013567ffffffffffffffff80821115611f63578384fd5b611f6f87838801611c83565b93506040860135915080821115611f84578283fd5b50611f9186828701611c83565b9150509250925092565b60008060008060808587031215611fb0578182fd5b8435935060208501359250611fc760408601611c6c565b9150606085013567ffffffffffffffff811115611ddf578182fd5b600080600060608486031215611ff6578081fd5b8335925060208401359150604084013567ffffffffffffffff81111561201a578182fd5b611f9186828701611c83565b6000815180845261203e8160208601602086016128ad565b601f01601f19169290920160200192915050565b600083516120648184602088016128ad565b8351908301906120788183602088016128ad565b01949350505050565b61190160f01b81526002810192909252602282015260420190565b6001600160a01b0391909116815260200190565b6001600160a01b03858116825284166020820152604081018390526080606082018190526000906120e390830184612026565b9695505050505050565b901515815260200190565b90815260200190565b93845260208401929092526001600160a01b03166040830152606082015260800190565b938452602084019290925260408301526001600160a01b0316606082015260800190565b93845260ff9290921660208401526040830152606082015260800190565b6000602082526113e56020830184612026565b60208082526018908201527f45434453413a20696e76616c6964207369676e61747572650000000000000000604082015260600190565b6020808252600e908201526d24b73b30b634b21029b4b3b732b960911b604082015260600190565b6020808252601f908201527f45434453413a20696e76616c6964207369676e6174757265206c656e67746800604082015260600190565b6020808252602b908201527f455243373231456e756d657261626c653a206f776e657220696e646578206f7560408201526a74206f6620626f756e647360a81b606082015260800190565b60208082526032908201527f4552433732313a207472616e7366657220746f206e6f6e20455243373231526560408201527131b2b4bb32b91034b6b83632b6b2b73a32b960711b606082015260800190565b60208082526026908201527f4f776e61626c653a206e6577206f776e657220697320746865207a65726f206160408201526564647265737360d01b606082015260800190565b60208082526025908201527f4552433732313a207472616e736665722066726f6d20696e636f72726563742060408201526437bbb732b960d91b606082015260800190565b6020808252601c908201527f4552433732313a20746f6b656e20616c7265616479206d696e74656400000000604082015260600190565b60208082526024908201527f4552433732313a207472616e7366657220746f20746865207a65726f206164646040820152637265737360e01b606082015260800190565b60208082526019908201527f4552433732313a20617070726f766520746f2063616c6c657200000000000000604082015260600190565b60208082526022908201527f45434453413a20696e76616c6964207369676e6174757265202773272076616c604082015261756560f01b606082015260800190565b6020808252602c908201527f4552433732313a206f70657261746f7220717565727920666f72206e6f6e657860408201526b34b9ba32b73a103a37b5b2b760a11b606082015260800190565b60208082526038908201527f4552433732313a20617070726f76652063616c6c6572206973206e6f74206f7760408201527f6e6572206e6f7220617070726f76656420666f7220616c6c0000000000000000606082015260800190565b6020808252602a908201527f4552433732313a2062616c616e636520717565727920666f7220746865207a65604082015269726f206164647265737360b01b606082015260800190565b60208082526029908201527f4552433732313a206f776e657220717565727920666f72206e6f6e657869737460408201526832b73a103a37b5b2b760b91b606082015260800190565b6020808252602e908201527f45524337323155524953746f726167653a2055524920736574206f66206e6f6e60408201526d32bc34b9ba32b73a103a37b5b2b760911b606082015260800190565b60208082526022908201527f45434453413a20696e76616c6964207369676e6174757265202776272076616c604082015261756560f01b606082015260800190565b6020808252818101527f4552433732313a206d696e7420746f20746865207a65726f2061646472657373604082015260600190565b6020808252602d908201527f4f6e6c7920746865206f776e6572206f66204e46542063616e207472616e736660408201526c195c881bdc88189d5c9b881a5d609a1b606082015260800190565b6020808252602c908201527f4552433732313a20617070726f76656420717565727920666f72206e6f6e657860408201526b34b9ba32b73a103a37b5b2b760a11b606082015260800190565b6020808252818101527f4f776e61626c653a2063616c6c6572206973206e6f7420746865206f776e6572604082015260600190565b6020808252602f908201527f4552433732314d657461646174613a2055524920717565727920666f72206e6f60408201526e3732bc34b9ba32b73a103a37b5b2b760891b606082015260800190565b60208082526021908201527f4552433732313a20617070726f76616c20746f2063757272656e74206f776e656040820152603960f91b606082015260800190565b60208082526031908201527f4552433732313a207472616e736665722063616c6c6572206973206e6f74206f6040820152701ddb995c881b9bdc88185c1c1c9bdd9959607a1b606082015260800190565b6020808252602c908201527f455243373231456e756d657261626c653a20676c6f62616c20696e646578206f60408201526b7574206f6620626f756e647360a01b606082015260800190565b602080825260119082015270105b1c9958591e4810d85b98d95b1b1959607a1b604082015260600190565b9182526001600160a01b0316602082015260400190565b6000821982111561287d5761287d612943565b500190565b60008261289157612891612959565b500490565b6000828210156128a8576128a8612943565b500390565b60005b838110156128c85781810151838201526020016128b0565b838111156106fa5750506000910152565b6002810460018216806128ed57607f821691505b6020821081141561290e57634e487b7160e01b600052602260045260246000fd5b50919050565b600060001982141561292857612928612943565b5060010190565b60008261293e5761293e612959565b500690565b634e487b7160e01b600052601160045260246000fd5b634e487b7160e01b600052601260045260246000fd5b634e487b7160e01b600052604160045260246000fd5b8015158114610d6f57600080fd5b6001600160e01b031981168114610d6f57600080fdfea2646970667358221220737c4c574e9c2cbe1cfc214b2276a67de66cbf1bb65e0b786fc5b34b8834689a64736f6c63430008010033",
  "linkReferences": {},
  "deployedLinkReferences": {}
}