{
  "_format": "hh-sol-artifact-1",
  "contractName": "LootBox",
  "sourceName": "contracts/LootBox.sol",
  "abi": [
    {
      "inputs": [],
      "stateMutability": "nonpayable",
      "type": "constructor"
    },
    {
      "anonymous": false,
      "inputs": [
        {
          "indexed": true,
          "internalType": "address",
          "name": "owner",
          "type": "address"
        },
        {
          "indexed": true,
          "internalType": "address",
          "name": "approved",
          "type": "address"
        },
        {
          "indexed": true,
          "internalType": "uint256",
          "name": "tokenId",
          "type": "uint256"
        }
      ],
      "name": "Approval",
      "type": "event"
    },
    {
      "anonymous": false,
      "inputs": [
        {
          "indexed": true,
          "internalType": "address",
          "name": "owner",
          "type": "address"
        },
        {
          "indexed": true,
          "internalType": "address",
          "name": "operator",
          "type": "address"
        },
        {
          "indexed": false,
          "internalType": "bool",
          "name": "approved",
          "type": "bool"
        }
      ],
      "name": "ApprovalForAll",
      "type": "event"
    },
    {
      "anonymous": false,
      "inputs": [
        {
          "indexed": true,
          "internalType": "bytes32",
          "name": "role",
          "type": "bytes32"
        },
        {
          "indexed": true,
          "internalType": "bytes32",
          "name": "previousAdminRole",
          "type": "bytes32"
        },
        {
          "indexed": true,
          "internalType": "bytes32",
          "name": "newAdminRole",
          "type": "bytes32"
        }
      ],
      "name": "RoleAdminChanged",
      "type": "event"
    },
    {
      "anonymous": false,
      "inputs": [
        {
          "indexed": true,
          "internalType": "bytes32",
          "name": "role",
          "type": "bytes32"
        },
        {
          "indexed": true,
          "internalType": "address",
          "name": "account",
          "type": "address"
        },
        {
          "indexed": true,
          "internalType": "address",
          "name": "sender",
          "type": "address"
        }
      ],
      "name": "RoleGranted",
      "type": "event"
    },
    {
      "anonymous": false,
      "inputs": [
        {
          "indexed": true,
          "internalType": "bytes32",
          "name": "role",
          "type": "bytes32"
        },
        {
          "indexed": true,
          "internalType": "address",
          "name": "account",
          "type": "address"
        },
        {
          "indexed": true,
          "internalType": "address",
          "name": "sender",
          "type": "address"
        }
      ],
      "name": "RoleRevoked",
      "type": "event"
    },
    {
      "anonymous": false,
      "inputs": [
        {
          "indexed": true,
          "internalType": "address",
          "name": "from",
          "type": "address"
        },
        {
          "indexed": true,
          "internalType": "address",
          "name": "to",
          "type": "address"
        },
        {
          "indexed": true,
          "internalType": "uint256",
          "name": "tokenId",
          "type": "uint256"
        }
      ],
      "name": "Transfer",
      "type": "event"
    },
    {
      "inputs": [],
      "name": "DEFAULT_ADMIN_ROLE",
      "outputs": [
        {
          "internalType": "bytes32",
          "name": "",
          "type": "bytes32"
        }
      ],
      "stateMutability": "view",
      "type": "function"
    },
    {
      "inputs": [],
      "name": "MINTER_ROLE",
      "outputs": [
        {
          "internalType": "bytes32",
          "name": "",
          "type": "bytes32"
        }
      ],
      "stateMutability": "view",
      "type": "function"
    },
    {
      "inputs": [
        {
          "internalType": "uint256",
          "name": "tokenId",
          "type": "uint256"
        },
        {
          "internalType": "uint256",
          "name": "amount",
          "type": "uint256"
        },
        {
          "internalType": "address",
          "name": "burner",
          "type": "address"
        },
        {
          "internalType": "bytes",
          "name": "signature",
          "type": "bytes"
        }
      ],
      "name": "_validateSignToRedeem",
      "outputs": [
        {
          "internalType": "address",
          "name": "",
          "type": "address"
        }
      ],
      "stateMutability": "view",
      "type": "function"
    },
    {
      "inputs": [
        {
          "internalType": "uint256",
          "name": "tokenId",
          "type": "uint256"
        },
        {
          "internalType": "string",
          "name": "uri",
          "type": "string"
        },
        {
          "internalType": "address",
          "name": "signer",
          "type": "address"
        },
        {
          "internalType": "bytes",
          "name": "signature",
          "type": "bytes"
        }
      ],
      "name": "_validateSigner",
      "outputs": [
        {
          "internalType": "address",
          "name": "",
          "type": "address"
        }
      ],
      "stateMutability": "view",
      "type": "function"
    },
    {
      "inputs": [
        {
          "internalType": "uint256",
          "name": "",
          "type": "uint256"
        }
      ],
      "name": "alreadyMinted",
      "outputs": [
        {
          "internalType": "bool",
          "name": "",
          "type": "bool"
        }
      ],
      "stateMutability": "view",
      "type": "function"
    },
    {
      "inputs": [
        {
          "internalType": "address",
          "name": "to",
          "type": "address"
        },
        {
          "internalType": "uint256",
          "name": "tokenId",
          "type": "uint256"
        }
      ],
      "name": "approve",
      "outputs": [],
      "stateMutability": "nonpayable",
      "type": "function"
    },
    {
      "inputs": [
        {
          "internalType": "address",
          "name": "owner",
          "type": "address"
        }
      ],
      "name": "balanceOf",
      "outputs": [
        {
          "internalType": "uint256",
          "name": "",
          "type": "uint256"
        }
      ],
      "stateMutability": "view",
      "type": "function"
    },
    {
      "inputs": [
        {
          "internalType": "uint256",
          "name": "tokenId",
          "type": "uint256"
        },
        {
          "internalType": "uint256",
          "name": "amount",
          "type": "uint256"
        },
        {
          "internalType": "bytes",
          "name": "signature",
          "type": "bytes"
        }
      ],
      "name": "burnAndReveal",
      "outputs": [],
      "stateMutability": "nonpayable",
      "type": "function"
    },
    {
      "inputs": [
        {
          "internalType": "uint256",
          "name": "tokenId",
          "type": "uint256"
        }
      ],
      "name": "getApproved",
      "outputs": [
        {
          "internalType": "address",
          "name": "",
          "type": "address"
        }
      ],
      "stateMutability": "view",
      "type": "function"
    },
    {
      "inputs": [
        {
          "internalType": "bytes32",
          "name": "role",
          "type": "bytes32"
        }
      ],
      "name": "getRoleAdmin",
      "outputs": [
        {
          "internalType": "bytes32",
          "name": "",
          "type": "bytes32"
        }
      ],
      "stateMutability": "view",
      "type": "function"
    },
    {
      "inputs": [
        {
          "internalType": "bytes32",
          "name": "role",
          "type": "bytes32"
        },
        {
          "internalType": "address",
          "name": "account",
          "type": "address"
        }
      ],
      "name": "grantRole",
      "outputs": [],
      "stateMutability": "nonpayable",
      "type": "function"
    },
    {
      "inputs": [
        {
          "internalType": "bytes32",
          "name": "role",
          "type": "bytes32"
        },
        {
          "internalType": "address",
          "name": "account",
          "type": "address"
        }
      ],
      "name": "hasRole",
      "outputs": [
        {
          "internalType": "bool",
          "name": "",
          "type": "bool"
        }
      ],
      "stateMutability": "view",
      "type": "function"
    },
    {
      "inputs": [
        {
          "internalType": "address",
          "name": "owner",
          "type": "address"
        },
        {
          "internalType": "address",
          "name": "operator",
          "type": "address"
        }
      ],
      "name": "isApprovedForAll",
      "outputs": [
        {
          "internalType": "bool",
          "name": "",
          "type": "bool"
        }
      ],
      "stateMutability": "view",
      "type": "function"
    },
    {
      "inputs": [],
      "name": "name",
      "outputs": [
        {
          "internalType": "string",
          "name": "",
          "type": "string"
        }
      ],
      "stateMutability": "view",
      "type": "function"
    },
    {
      "inputs": [
        {
          "internalType": "uint256",
          "name": "tokenId",
          "type": "uint256"
        }
      ],
      "name": "ownerOf",
      "outputs": [
        {
          "internalType": "address",
          "name": "",
          "type": "address"
        }
      ],
      "stateMutability": "view",
      "type": "function"
    },
    {
      "inputs": [
        {
          "internalType": "uint256",
          "name": "tokenId",
          "type": "uint256"
        },
        {
          "internalType": "string",
          "name": "uri",
          "type": "string"
        },
        {
          "internalType": "bytes",
          "name": "signature",
          "type": "bytes"
        }
      ],
      "name": "redeem",
      "outputs": [],
      "stateMutability": "payable",
      "type": "function"
    },
    {
      "inputs": [
        {
          "internalType": "bytes32",
          "name": "role",
          "type": "bytes32"
        },
        {
          "internalType": "address",
          "name": "account",
          "type": "address"
        }
      ],
      "name": "renounceRole",
      "outputs": [],
      "stateMutability": "nonpayable",
      "type": "function"
    },
    {
      "inputs": [
        {
          "internalType": "bytes32",
          "name": "role",
          "type": "bytes32"
        },
        {
          "internalType": "address",
          "name": "account",
          "type": "address"
        }
      ],
      "name": "revokeRole",
      "outputs": [],
      "stateMutability": "nonpayable",
      "type": "function"
    },
    {
      "inputs": [
        {
          "internalType": "address",
          "name": "from",
          "type": "address"
        },
        {
          "internalType": "address",
          "name": "to",
          "type": "address"
        },
        {
          "internalType": "uint256",
          "name": "tokenId",
          "type": "uint256"
        }
      ],
      "name": "safeTransferFrom",
      "outputs": [],
      "stateMutability": "nonpayable",
      "type": "function"
    },
    {
      "inputs": [
        {
          "internalType": "address",
          "name": "from",
          "type": "address"
        },
        {
          "internalType": "address",
          "name": "to",
          "type": "address"
        },
        {
          "internalType": "uint256",
          "name": "tokenId",
          "type": "uint256"
        },
        {
          "internalType": "bytes",
          "name": "_data",
          "type": "bytes"
        }
      ],
      "name": "safeTransferFrom",
      "outputs": [],
      "stateMutability": "nonpayable",
      "type": "function"
    },
    {
      "inputs": [
        {
          "internalType": "address",
          "name": "operator",
          "type": "address"
        },
        {
          "internalType": "bool",
          "name": "approved",
          "type": "bool"
        }
      ],
      "name": "setApprovalForAll",
      "outputs": [],
      "stateMutability": "nonpayable",
      "type": "function"
    },
    {
      "inputs": [
        {
          "internalType": "bytes4",
          "name": "interfaceId",
          "type": "bytes4"
        }
      ],
      "name": "supportsInterface",
      "outputs": [
        {
          "internalType": "bool",
          "name": "",
          "type": "bool"
        }
      ],
      "stateMutability": "view",
      "type": "function"
    },
    {
      "inputs": [],
      "name": "symbol",
      "outputs": [
        {
          "internalType": "string",
          "name": "",
          "type": "string"
        }
      ],
      "stateMutability": "view",
      "type": "function"
    },
    {
      "inputs": [
        {
          "internalType": "uint256",
          "name": "",
          "type": "uint256"
        }
      ],
      "name": "tokenBurner",
      "outputs": [
        {
          "internalType": "address",
          "name": "",
          "type": "address"
        }
      ],
      "stateMutability": "view",
      "type": "function"
    },
    {
      "inputs": [
        {
          "internalType": "uint256",
          "name": "tokenId",
          "type": "uint256"
        }
      ],
      "name": "tokenURI",
      "outputs": [
        {
          "internalType": "string",
          "name": "",
          "type": "string"
        }
      ],
      "stateMutability": "view",
      "type": "function"
    },
    {
      "inputs": [
        {
          "internalType": "address",
          "name": "from",
          "type": "address"
        },
        {
          "internalType": "address",
          "name": "to",
          "type": "address"
        },
        {
          "internalType": "uint256",
          "name": "tokenId",
          "type": "uint256"
        }
      ],
      "name": "transferFrom",
      "outputs": [],
      "stateMutability": "nonpayable",
      "type": "function"
    }
  ],
  "bytecode": "0x7f8b73c3c69bb8fe3d512ecc4cf759cc79239f7b179b0ffacaa9a75d522b39400f600a819055600b6080526a42756c6c6965766572736560a81b60a052610100604052600160c052603160f81b60e052620000a1907f04e1a141bd284a6be4d4cd3427d70220b8d58f3a2b00e586534bbde39c592b8d7fc89efdaa54c0f20c7adf612882df0950f5a951637e0307cdcb4c672f298b8bc64630610120620002cc565b60405160208183030381529060405280519060200120600b55348015620000c757600080fd5b50604080518082018252600780825266098dedee884def60cb1b6020808401828152855180870190965292855284015281519192916200010a9160009162000226565b5080516200012090600190602084019062000226565b505050620001557f9f2df0fed2c77648de5860a4cc508cd0818c85b8b8a1ab4ceeef8d981c8956a6336200015b60201b60201c565b62000335565b6200016782826200016b565b5050565b620001778282620001f7565b620001675760008281526007602090815260408083206001600160a01b03851684529091529020805460ff19166001179055620001b362000222565b6001600160a01b0316816001600160a01b0316837f2f8788117e7eff1d82e926ec794901d17c78024a50270940304540a733656f0d60405160405180910390a45050565b60009182526007602090815260408084206001600160a01b0393909316845291905290205460ff1690565b3390565b8280546200023490620002f8565b90600052602060002090601f016020900481019282620002585760008555620002a3565b82601f106200027357805160ff1916838001178555620002a3565b82800160010185558215620002a3579182015b82811115620002a357825182559160200191906001019062000286565b50620002b1929150620002b5565b5090565b5b80821115620002b15760008155600101620002b6565b9485526020850193909352604084019190915260608301526001600160a01b0316608082015260a00190565b6002810460018216806200030d57607f821691505b602082108114156200032f57634e487b7160e01b600052602260045260246000fd5b50919050565b61299f80620003456000396000f3fe6080604052600436106101805760003560e01c806370a08231116100d1578063a2bd46811161008a578063c87b56dd11610064578063c87b56dd14610456578063d539139314610476578063d547741f1461048b578063e985e9c5146104ab57610180565b8063a2bd4681146103f6578063b7365f1f14610416578063b88d4fde1461043657610180565b806370a082311461034c5780638b1cc4f41461036c57806391d148541461038c57806395d89b41146103ac578063a217fddf146103c1578063a22cb465146103d657610180565b806323b872dd1161013e57806336568abe1161011857806336568abe146102d957806342842e0e146102f95780635e5455ec146103195780636352211e1461032c57610180565b806323b872dd1461026c578063248a9ca31461028c5780632f2ff15d146102b957610180565b8062aee1d81461018557806301ffc9a7146101bb57806306fdde03146101e8578063081812fc1461020a578063095ea7b31461022a5780630babbc9a1461024c575b600080fd5b34801561019157600080fd5b506101a56101a0366004611e1d565b6104cb565b6040516101b2919061206c565b60405180910390f35b3480156101c757600080fd5b506101db6101d6366004611de5565b610554565b6040516101b291906120bd565b3480156101f457600080fd5b506101fd610576565b6040516101b29190612137565b34801561021657600080fd5b506101a5610225366004611dab565b610608565b34801561023657600080fd5b5061024a610245366004611d82565b610654565b005b34801561025857600080fd5b5061024a610267366004611f3d565b6106ec565b34801561027857600080fd5b5061024a610287366004611ca7565b610751565b34801561029857600080fd5b506102ac6102a7366004611dab565b610789565b6040516101b291906120c8565b3480156102c557600080fd5b5061024a6102d4366004611dc3565b61079e565b3480156102e557600080fd5b5061024a6102f4366004611dc3565b6107ba565b34801561030557600080fd5b5061024a610314366004611ca7565b610800565b61024a610327366004611e8c565b61081b565b34801561033857600080fd5b506101a5610347366004611dab565b6108d2565b34801561035857600080fd5b506102ac610367366004611c5b565b610907565b34801561037857600080fd5b506101a5610387366004611dab565b61094b565b34801561039857600080fd5b506101db6103a7366004611dc3565b610966565b3480156103b857600080fd5b506101fd610991565b3480156103cd57600080fd5b506102ac6109a0565b3480156103e257600080fd5b5061024a6103f1366004611d48565b6109a5565b34801561040257600080fd5b506101a5610411366004611ef6565b6109b7565b34801561042257600080fd5b506101db610431366004611dab565b6109f6565b34801561044257600080fd5b5061024a610451366004611ce2565b610a0b565b34801561046257600080fd5b506101fd610471366004611dab565b610a44565b34801561048257600080fd5b506102ac610b5d565b34801561049757600080fd5b5061024a6104a6366004611dc3565b610b81565b3480156104b757600080fd5b506101db6104c6366004611c75565b610b9d565b6000807f32cfa0b8afda4a26ae8d5d09f1c66e11e30261cab9b6ff66765862e15d01ff7d90506000818786888051906020012060405160200161051194939291906120d1565b6040516020818303038152906040528051906020012090506000610537600b5483610bcb565b905060006105458287610bfe565b9450505050505b949350505050565b600061055f82610c22565b8061056e575061056e82610c62565b90505b919050565b606060008054610585906128a7565b80601f01602080910402602001604051908101604052809291908181526020018280546105b1906128a7565b80156105fe5780601f106105d3576101008083540402835291602001916105fe565b820191906000526020600020905b8154815290600101906020018083116105e157829003601f168201915b5050505050905090565b600061061382610c87565b6106385760405162461bcd60e51b815260040161062f90612617565b60405180910390fd5b506000908152600460205260409020546001600160a01b031690565b600061065f826108d2565b9050806001600160a01b0316836001600160a01b031614156106935760405162461bcd60e51b815260040161062f906126b2565b806001600160a01b03166106a5610ca4565b6001600160a01b031614806106c157506106c1816104c6610ca4565b6106dd5760405162461bcd60e51b815260040161062f906123c4565b6106e78383610ca8565b505050565b60006106fa848433856109b7565b90506107267f9f2df0fed2c77648de5860a4cc508cd0818c85b8b8a1ab4ceeef8d981c8956a682610966565b6107425760405162461bcd60e51b815260040161062f906126f3565b61074b84610d16565b50505050565b61076261075c610ca4565b82610d59565b61077e5760405162461bcd60e51b815260040161062f90612734565b6106e7838383610ddd565b60009081526007602052604090206001015490565b6107a782610789565b6107b081610f10565b6106e78383610f21565b6107c2610ca4565b6001600160a01b0316816001600160a01b0316146107f25760405162461bcd60e51b815260040161062f906127b3565b6107fc8282610fa8565b5050565b6106e783838360405180602001604052806000815250610a0b565b60008381526008602052604090205460ff161561084a5760405162461bcd60e51b815260040161062f90612785565b6000610858848433856104cb565b90506108847f9f2df0fed2c77648de5860a4cc508cd0818c85b8b8a1ab4ceeef8d981c8956a682610966565b6108a05760405162461bcd60e51b815260040161062f906126f3565b6108aa338561102d565b6108b48484611114565b5050506000908152600860205260409020805460ff19166001179055565b6000818152600260205260408120546001600160a01b03168061056e5760405162461bcd60e51b815260040161062f9061246b565b60006001600160a01b03821661092f5760405162461bcd60e51b815260040161062f90612421565b506001600160a01b031660009081526003602052604090205490565b6009602052600090815260409020546001600160a01b031681565b60009182526007602090815260408084206001600160a01b0393909316845291905290205460ff1690565b606060018054610585906128a7565b600081565b6107fc6109b0610ca4565b8383611158565b6000807fa3dbbba575ad305357c3f054bb689abe851d6bc0de669124aba66ede75b866e4905060008187878760405160200161051194939291906120f5565b60086020526000908152604090205460ff1681565b610a1c610a16610ca4565b83610d59565b610a385760405162461bcd60e51b815260040161062f90612734565b61074b848484846111fb565b6060610a4f82610c87565b610a6b5760405162461bcd60e51b815260040161062f906125c6565b60008281526006602052604081208054610a84906128a7565b80601f0160208091040260200160405190810160405280929190818152602001828054610ab0906128a7565b8015610afd5780601f10610ad257610100808354040283529160200191610afd565b820191906000526020600020905b815481529060010190602001808311610ae057829003601f168201915b505050505090506000610b0e61122e565b9050805160001415610b2257509050610571565b815115610b54578082604051602001610b3c929190611fad565b60405160208183030381529060405292505050610571565b61054c84611240565b7f9f2df0fed2c77648de5860a4cc508cd0818c85b8b8a1ab4ceeef8d981c8956a681565b610b8a82610789565b610b9381610f10565b6106e78383610fa8565b6001600160a01b03918216600090815260056020908152604080832093909416825291909152205460ff1690565b60008282604051602001610be0929190611fdc565b60405160208183030381529060405280519060200120905092915050565b6000806000610c0d85856112c3565b91509150610c1a81611333565b509392505050565b60006001600160e01b031982166380ac58cd60e01b1480610c5357506001600160e01b03198216635b5e139f60e01b145b8061056e575061056e82611460565b60006001600160e01b03198216637965db0b60e01b148061056e575061056e82610c22565b6000908152600260205260409020546001600160a01b0316151590565b3390565b600081815260046020526040902080546001600160a01b0319166001600160a01b0384169081179091558190610cdd826108d2565b6001600160a01b03167f8c5be1e5ebec7d5bd14f71427d1e84f3dd0314c0f7b2291e5b200ac8c7c3b92560405160405180910390a45050565b610d1f81611479565b60008181526006602052604090208054610d38906128a7565b159050610d56576000818152600660205260408120610d5691611ae8565b50565b6000610d6482610c87565b610d805760405162461bcd60e51b815260040161062f90612378565b6000610d8b836108d2565b9050806001600160a01b0316846001600160a01b03161480610db25750610db28185610b9d565b8061054c5750836001600160a01b0316610dcb84610608565b6001600160a01b031614949350505050565b826001600160a01b0316610df0826108d2565b6001600160a01b031614610e165760405162461bcd60e51b815260040161062f9061223f565b6001600160a01b038216610e3c5760405162461bcd60e51b815260040161062f906122bb565b610e47838383611528565b610e52600082610ca8565b6001600160a01b0383166000908152600360205260408120805460019290610e7b90849061284d565b90915550506001600160a01b0382166000908152600360205260408120805460019290610ea9908490612802565b909155505060008181526002602052604080822080546001600160a01b0319166001600160a01b0386811691821790925591518493918716917fddf252ad1be2c89b69c2b068fc378daa952ba7f163c4a11628f55a4df523b3ef91a46106e78383836106e7565b610d5681610f1c610ca4565b611577565b610f2b8282610966565b6107fc5760008281526007602090815260408083206001600160a01b03851684529091529020805460ff19166001179055610f64610ca4565b6001600160a01b0316816001600160a01b0316837f2f8788117e7eff1d82e926ec794901d17c78024a50270940304540a733656f0d60405160405180910390a45050565b610fb28282610966565b156107fc5760008281526007602090815260408083206001600160a01b03851684529091529020805460ff19169055610fe9610ca4565b6001600160a01b0316816001600160a01b0316837ff6391f5c32d9c69d2a47ea670b442974b53935d1edc7fd64eb21e047a839171b60405160405180910390a45050565b6001600160a01b0382166110535760405162461bcd60e51b815260040161062f90612544565b61105c81610c87565b156110795760405162461bcd60e51b815260040161062f90612284565b61108560008383611528565b6001600160a01b03821660009081526003602052604081208054600192906110ae908490612802565b909155505060008181526002602052604080822080546001600160a01b0319166001600160a01b03861690811790915590518392907fddf252ad1be2c89b69c2b068fc378daa952ba7f163c4a11628f55a4df523b3ef908290a46107fc600083836106e7565b61111d82610c87565b6111395760405162461bcd60e51b815260040161062f906124b4565b600082815260066020908152604090912082516106e792840190611b24565b816001600160a01b0316836001600160a01b0316141561118a5760405162461bcd60e51b815260040161062f906122ff565b6001600160a01b0383811660008181526005602090815260408083209487168084529490915290819020805460ff1916851515179055517f17307eab39ab6107e8899845ad3d59bd9653f200f220920489ca2b5937696c31906111ee9085906120bd565b60405180910390a3505050565b611206848484610ddd565b611212848484846115db565b61074b5760405162461bcd60e51b815260040161062f906121ed565b60408051602081019091526000815290565b606061124b82610c87565b6112675760405162461bcd60e51b815260040161062f90612663565b600061127161122e565b9050600081511161129157604051806020016040528060008152506112bc565b8061129b846116f3565b6040516020016112ac929190611fad565b6040516020818303038152906040525b9392505050565b6000808251604114156112fa5760208301516040840151606085015160001a6112ee8782858561180e565b9450945050505061132c565b82516040141561132457602083015160408401516113198683836118ee565b93509350505061132c565b506000905060025b9250929050565b600081600481111561135557634e487b7160e01b600052602160045260246000fd5b141561136057610d56565b600181600481111561138257634e487b7160e01b600052602160045260246000fd5b14156113a05760405162461bcd60e51b815260040161062f9061214a565b60028160048111156113c257634e487b7160e01b600052602160045260246000fd5b14156113e05760405162461bcd60e51b815260040161062f906121b6565b600381600481111561140257634e487b7160e01b600052602160045260246000fd5b14156114205760405162461bcd60e51b815260040161062f90612336565b600481600481111561144257634e487b7160e01b600052602160045260246000fd5b1415610d565760405162461bcd60e51b815260040161062f90612502565b6001600160e01b031981166301ffc9a760e01b14919050565b6000611484826108d2565b905061149281600084611528565b61149d600083610ca8565b6001600160a01b03811660009081526003602052604081208054600192906114c690849061284d565b909155505060008281526002602052604080822080546001600160a01b0319169055518391906001600160a01b038416907fddf252ad1be2c89b69c2b068fc378daa952ba7f163c4a11628f55a4df523b3ef908390a46107fc816000846106e7565b6115338383836106e7565b6001600160a01b038316156106e757600061154d826108d2565b90506001600160a01b038116331461074b5760405162461bcd60e51b815260040161062f90612579565b6115818282610966565b6107fc57611599816001600160a01b03166014611927565b6115a4836020611927565b6040516020016115b5929190611ff7565b60408051601f198184030181529082905262461bcd60e51b825261062f91600401612137565b60006115ef846001600160a01b0316611ad9565b156116eb57836001600160a01b031663150b7a0261160b610ca4565b8786866040518563ffffffff1660e01b815260040161162d9493929190612080565b602060405180830381600087803b15801561164757600080fd5b505af1925050508015611677575060408051601f3d908101601f1916820190925261167491810190611e01565b60015b6116d1573d8080156116a5576040519150601f19603f3d011682016040523d82523d6000602084013e6116aa565b606091505b5080516116c95760405162461bcd60e51b815260040161062f906121ed565b805181602001fd5b6001600160e01b031916630a85bd0160e11b14905061054c565b50600161054c565b60608161171857506040805180820190915260018152600360fc1b6020820152610571565b8160005b8115611742578061172c816128e2565b915061173b9050600a8361281a565b915061171c565b60008167ffffffffffffffff81111561176b57634e487b7160e01b600052604160045260246000fd5b6040519080825280601f01601f191660200182016040528015611795576020820181803683370190505b5090505b841561054c576117aa60018361284d565b91506117b7600a866128fd565b6117c2906030612802565b60f81b8183815181106117e557634e487b7160e01b600052603260045260246000fd5b60200101906001600160f81b031916908160001a905350611807600a8661281a565b9450611799565b6000807f7fffffffffffffffffffffffffffffff5d576e7357a4501ddfe92f46681b20a083111561184557506000905060036118e5565b8460ff16601b1415801561185d57508460ff16601c14155b1561186e57506000905060046118e5565b6000600187878787604051600081526020016040526040516118939493929190612119565b6020604051602081039080840390855afa1580156118b5573d6000803e3d6000fd5b5050604051601f1901519150506001600160a01b0381166118de576000600192509250506118e5565b9150600090505b94509492505050565b6000806001600160ff1b0383168161190b60ff86901c601b612802565b90506119198782888561180e565b935093505050935093915050565b6060600061193683600261282e565b611941906002612802565b67ffffffffffffffff81111561196757634e487b7160e01b600052604160045260246000fd5b6040519080825280601f01601f191660200182016040528015611991576020820181803683370190505b509050600360fc1b816000815181106119ba57634e487b7160e01b600052603260045260246000fd5b60200101906001600160f81b031916908160001a905350600f60fb1b816001815181106119f757634e487b7160e01b600052603260045260246000fd5b60200101906001600160f81b031916908160001a9053506000611a1b84600261282e565b611a26906001612802565b90505b6001811115611aba576f181899199a1a9b1b9c1cb0b131b232b360811b85600f1660108110611a6857634e487b7160e01b600052603260045260246000fd5b1a60f81b828281518110611a8c57634e487b7160e01b600052603260045260246000fd5b60200101906001600160f81b031916908160001a90535060049490941c93611ab381612890565b9050611a29565b5083156112bc5760405162461bcd60e51b815260040161062f90612181565b6001600160a01b03163b151590565b508054611af4906128a7565b6000825580601f10611b065750610d56565b601f016020900490600052602060002090810190610d569190611ba8565b828054611b30906128a7565b90600052602060002090601f016020900481019282611b525760008555611b98565b82601f10611b6b57805160ff1916838001178555611b98565b82800160010185558215611b98579182015b82811115611b98578251825591602001919060010190611b7d565b50611ba4929150611ba8565b5090565b5b80821115611ba45760008155600101611ba9565b80356001600160a01b038116811461057157600080fd5b600082601f830112611be4578081fd5b813567ffffffffffffffff80821115611bff57611bff61293d565b604051601f8301601f19908116603f01168101908282118183101715611c2757611c2761293d565b81604052838152866020858801011115611c3f578485fd5b8360208701602083013792830160200193909352509392505050565b600060208284031215611c6c578081fd5b6112bc82611bbd565b60008060408385031215611c87578081fd5b611c9083611bbd565b9150611c9e60208401611bbd565b90509250929050565b600080600060608486031215611cbb578081fd5b611cc484611bbd565b9250611cd260208501611bbd565b9150604084013590509250925092565b60008060008060808587031215611cf7578081fd5b611d0085611bbd565b9350611d0e60208601611bbd565b925060408501359150606085013567ffffffffffffffff811115611d30578182fd5b611d3c87828801611bd4565b91505092959194509250565b60008060408385031215611d5a578182fd5b611d6383611bbd565b915060208301358015158114611d77578182fd5b809150509250929050565b60008060408385031215611d94578182fd5b611d9d83611bbd565b946020939093013593505050565b600060208284031215611dbc578081fd5b5035919050565b60008060408385031215611dd5578182fd5b82359150611c9e60208401611bbd565b600060208284031215611df6578081fd5b81356112bc81612953565b600060208284031215611e12578081fd5b81516112bc81612953565b60008060008060808587031215611e32578384fd5b84359350602085013567ffffffffffffffff80821115611e50578485fd5b611e5c88838901611bd4565b9450611e6a60408801611bbd565b93506060870135915080821115611e7f578283fd5b50611d3c87828801611bd4565b600080600060608486031215611ea0578081fd5b83359250602084013567ffffffffffffffff80821115611ebe578283fd5b611eca87838801611bd4565b93506040860135915080821115611edf578283fd5b50611eec86828701611bd4565b9150509250925092565b60008060008060808587031215611f0b578182fd5b8435935060208501359250611f2260408601611bbd565b9150606085013567ffffffffffffffff811115611d30578182fd5b600080600060608486031215611f51578081fd5b8335925060208401359150604084013567ffffffffffffffff811115611f75578182fd5b611eec86828701611bd4565b60008151808452611f99816020860160208601612864565b601f01601f19169290920160200192915050565b60008351611fbf818460208801612864565b835190830190611fd3818360208801612864565b01949350505050565b61190160f01b81526002810192909252602282015260420190565b60007f416363657373436f6e74726f6c3a206163636f756e74200000000000000000008252835161202f816017850160208801612864565b7001034b99036b4b9b9b4b733903937b6329607d1b6017918401918201528351612060816028840160208801612864565b01602801949350505050565b6001600160a01b0391909116815260200190565b6001600160a01b03858116825284166020820152604081018390526080606082018190526000906120b390830184611f81565b9695505050505050565b901515815260200190565b90815260200190565b93845260208401929092526001600160a01b03166040830152606082015260800190565b938452602084019290925260408301526001600160a01b0316606082015260800190565b93845260ff9290921660208401526040830152606082015260800190565b6000602082526112bc6020830184611f81565b60208082526018908201527f45434453413a20696e76616c6964207369676e61747572650000000000000000604082015260600190565b6020808252818101527f537472696e67733a20686578206c656e67746820696e73756666696369656e74604082015260600190565b6020808252601f908201527f45434453413a20696e76616c6964207369676e6174757265206c656e67746800604082015260600190565b60208082526032908201527f4552433732313a207472616e7366657220746f206e6f6e20455243373231526560408201527131b2b4bb32b91034b6b83632b6b2b73a32b960711b606082015260800190565b60208082526025908201527f4552433732313a207472616e736665722066726f6d20696e636f72726563742060408201526437bbb732b960d91b606082015260800190565b6020808252601c908201527f4552433732313a20746f6b656e20616c7265616479206d696e74656400000000604082015260600190565b60208082526024908201527f4552433732313a207472616e7366657220746f20746865207a65726f206164646040820152637265737360e01b606082015260800190565b60208082526019908201527f4552433732313a20617070726f766520746f2063616c6c657200000000000000604082015260600190565b60208082526022908201527f45434453413a20696e76616c6964207369676e6174757265202773272076616c604082015261756560f01b606082015260800190565b6020808252602c908201527f4552433732313a206f70657261746f7220717565727920666f72206e6f6e657860408201526b34b9ba32b73a103a37b5b2b760a11b606082015260800190565b60208082526038908201527f4552433732313a20617070726f76652063616c6c6572206973206e6f74206f7760408201527f6e6572206e6f7220617070726f76656420666f7220616c6c0000000000000000606082015260800190565b6020808252602a908201527f4552433732313a2062616c616e636520717565727920666f7220746865207a65604082015269726f206164647265737360b01b606082015260800190565b60208082526029908201527f4552433732313a206f776e657220717565727920666f72206e6f6e657869737460408201526832b73a103a37b5b2b760b91b606082015260800190565b6020808252602e908201527f45524337323155524953746f726167653a2055524920736574206f66206e6f6e60408201526d32bc34b9ba32b73a103a37b5b2b760911b606082015260800190565b60208082526022908201527f45434453413a20696e76616c6964207369676e6174757265202776272076616c604082015261756560f01b606082015260800190565b6020808252818101527f4552433732313a206d696e7420746f20746865207a65726f2061646472657373604082015260600190565b6020808252602d908201527f4f6e6c7920746865206f776e6572206f66204e46542063616e207472616e736660408201526c195c881bdc88189d5c9b881a5d609a1b606082015260800190565b60208082526031908201527f45524337323155524953746f726167653a2055524920717565727920666f72206040820152703737b732bc34b9ba32b73a103a37b5b2b760791b606082015260800190565b6020808252602c908201527f4552433732313a20617070726f76656420717565727920666f72206e6f6e657860408201526b34b9ba32b73a103a37b5b2b760a11b606082015260800190565b6020808252602f908201527f4552433732314d657461646174613a2055524920717565727920666f72206e6f60408201526e3732bc34b9ba32b73a103a37b5b2b760891b606082015260800190565b60208082526021908201527f4552433732313a20617070726f76616c20746f2063757272656e74206f776e656040820152603960f91b606082015260800190565b60208082526021908201527f5369676e617475726520696e76616c6964206f7220756e617574686f72697a656040820152601960fa1b606082015260800190565b60208082526031908201527f4552433732313a207472616e736665722063616c6c6572206973206e6f74206f6040820152701ddb995c881b9bdc88185c1c1c9bdd9959607a1b606082015260800190565b602080825260149082015273151bdad95b88105b1c9958591e48135a5b9d195960621b604082015260600190565b6020808252602f908201527f416363657373436f6e74726f6c3a2063616e206f6e6c792072656e6f756e636560408201526e103937b632b9903337b91039b2b63360891b606082015260800190565b6000821982111561281557612815612911565b500190565b60008261282957612829612927565b500490565b600081600019048311821515161561284857612848612911565b500290565b60008282101561285f5761285f612911565b500390565b60005b8381101561287f578181015183820152602001612867565b8381111561074b5750506000910152565b60008161289f5761289f612911565b506000190190565b6002810460018216806128bb57607f821691505b602082108114156128dc57634e487b7160e01b600052602260045260246000fd5b50919050565b60006000198214156128f6576128f6612911565b5060010190565b60008261290c5761290c612927565b500690565b634e487b7160e01b600052601160045260246000fd5b634e487b7160e01b600052601260045260246000fd5b634e487b7160e01b600052604160045260246000fd5b6001600160e01b031981168114610d5657600080fdfea26469706673582212209b4b25a00e6950e92057f908629a0c5d61614955dae19011a615425ccfceb88b64736f6c63430008010033",
  "linkReferences": {},
  "deployedLinkReferences": {}
}