{
  "_format": "hh-sol-artifact-1",
  "contractName": "LootBox",
  "sourceName": "contracts/LootBox.sol",
  "abi": [
    {
      "inputs": [],
      "stateMutability": "nonpayable",
      "type": "constructor"
    },
    {
      "anonymous": false,
      "inputs": [
        {
          "indexed": true,
          "internalType": "address",
          "name": "owner",
          "type": "address"
        },
        {
          "indexed": true,
          "internalType": "address",
          "name": "approved",
          "type": "address"
        },
        {
          "indexed": true,
          "internalType": "uint256",
          "name": "tokenId",
          "type": "uint256"
        }
      ],
      "name": "Approval",
      "type": "event"
    },
    {
      "anonymous": false,
      "inputs": [
        {
          "indexed": true,
          "internalType": "address",
          "name": "owner",
          "type": "address"
        },
        {
          "indexed": true,
          "internalType": "address",
          "name": "operator",
          "type": "address"
        },
        {
          "indexed": false,
          "internalType": "bool",
          "name": "approved",
          "type": "bool"
        }
      ],
      "name": "ApprovalForAll",
      "type": "event"
    },
    {
      "anonymous": false,
      "inputs": [
        {
          "indexed": true,
          "internalType": "bytes32",
          "name": "role",
          "type": "bytes32"
        },
        {
          "indexed": true,
          "internalType": "bytes32",
          "name": "previousAdminRole",
          "type": "bytes32"
        },
        {
          "indexed": true,
          "internalType": "bytes32",
          "name": "newAdminRole",
          "type": "bytes32"
        }
      ],
      "name": "RoleAdminChanged",
      "type": "event"
    },
    {
      "anonymous": false,
      "inputs": [
        {
          "indexed": true,
          "internalType": "bytes32",
          "name": "role",
          "type": "bytes32"
        },
        {
          "indexed": true,
          "internalType": "address",
          "name": "account",
          "type": "address"
        },
        {
          "indexed": true,
          "internalType": "address",
          "name": "sender",
          "type": "address"
        }
      ],
      "name": "RoleGranted",
      "type": "event"
    },
    {
      "anonymous": false,
      "inputs": [
        {
          "indexed": true,
          "internalType": "bytes32",
          "name": "role",
          "type": "bytes32"
        },
        {
          "indexed": true,
          "internalType": "address",
          "name": "account",
          "type": "address"
        },
        {
          "indexed": true,
          "internalType": "address",
          "name": "sender",
          "type": "address"
        }
      ],
      "name": "RoleRevoked",
      "type": "event"
    },
    {
      "anonymous": false,
      "inputs": [
        {
          "indexed": true,
          "internalType": "address",
          "name": "from",
          "type": "address"
        },
        {
          "indexed": true,
          "internalType": "address",
          "name": "to",
          "type": "address"
        },
        {
          "indexed": true,
          "internalType": "uint256",
          "name": "tokenId",
          "type": "uint256"
        }
      ],
      "name": "Transfer",
      "type": "event"
    },
    {
      "inputs": [],
      "name": "DEFAULT_ADMIN_ROLE",
      "outputs": [
        {
          "internalType": "bytes32",
          "name": "",
          "type": "bytes32"
        }
      ],
      "stateMutability": "view",
      "type": "function"
    },
    {
      "inputs": [],
      "name": "MINTER_ROLE",
      "outputs": [
        {
          "internalType": "bytes32",
          "name": "",
          "type": "bytes32"
        }
      ],
      "stateMutability": "view",
      "type": "function"
    },
    {
      "inputs": [
        {
          "internalType": "uint256",
          "name": "tokenId",
          "type": "uint256"
        },
        {
          "internalType": "string",
          "name": "uri",
          "type": "string"
        },
        {
          "internalType": "address",
          "name": "signer",
          "type": "address"
        },
        {
          "internalType": "bytes",
          "name": "signature",
          "type": "bytes"
        }
      ],
      "name": "_validateSigner",
      "outputs": [
        {
          "internalType": "address",
          "name": "",
          "type": "address"
        }
      ],
      "stateMutability": "view",
      "type": "function"
    },
    {
      "inputs": [
        {
          "internalType": "address",
          "name": "to",
          "type": "address"
        },
        {
          "internalType": "uint256",
          "name": "tokenId",
          "type": "uint256"
        }
      ],
      "name": "approve",
      "outputs": [],
      "stateMutability": "nonpayable",
      "type": "function"
    },
    {
      "inputs": [
        {
          "internalType": "address",
          "name": "owner",
          "type": "address"
        }
      ],
      "name": "balanceOf",
      "outputs": [
        {
          "internalType": "uint256",
          "name": "",
          "type": "uint256"
        }
      ],
      "stateMutability": "view",
      "type": "function"
    },
    {
      "inputs": [
        {
          "internalType": "uint256",
          "name": "tokenId",
          "type": "uint256"
        }
      ],
      "name": "burn",
      "outputs": [],
      "stateMutability": "nonpayable",
      "type": "function"
    },
    {
      "inputs": [
        {
          "internalType": "uint256",
          "name": "tokenId",
          "type": "uint256"
        }
      ],
      "name": "getApproved",
      "outputs": [
        {
          "internalType": "address",
          "name": "",
          "type": "address"
        }
      ],
      "stateMutability": "view",
      "type": "function"
    },
    {
      "inputs": [
        {
          "internalType": "bytes32",
          "name": "role",
          "type": "bytes32"
        }
      ],
      "name": "getRoleAdmin",
      "outputs": [
        {
          "internalType": "bytes32",
          "name": "",
          "type": "bytes32"
        }
      ],
      "stateMutability": "view",
      "type": "function"
    },
    {
      "inputs": [
        {
          "internalType": "bytes32",
          "name": "role",
          "type": "bytes32"
        },
        {
          "internalType": "address",
          "name": "account",
          "type": "address"
        }
      ],
      "name": "grantRole",
      "outputs": [],
      "stateMutability": "nonpayable",
      "type": "function"
    },
    {
      "inputs": [
        {
          "internalType": "bytes32",
          "name": "role",
          "type": "bytes32"
        },
        {
          "internalType": "address",
          "name": "account",
          "type": "address"
        }
      ],
      "name": "hasRole",
      "outputs": [
        {
          "internalType": "bool",
          "name": "",
          "type": "bool"
        }
      ],
      "stateMutability": "view",
      "type": "function"
    },
    {
      "inputs": [
        {
          "internalType": "address",
          "name": "owner",
          "type": "address"
        },
        {
          "internalType": "address",
          "name": "operator",
          "type": "address"
        }
      ],
      "name": "isApprovedForAll",
      "outputs": [
        {
          "internalType": "bool",
          "name": "",
          "type": "bool"
        }
      ],
      "stateMutability": "view",
      "type": "function"
    },
    {
      "inputs": [],
      "name": "name",
      "outputs": [
        {
          "internalType": "string",
          "name": "",
          "type": "string"
        }
      ],
      "stateMutability": "view",
      "type": "function"
    },
    {
      "inputs": [
        {
          "internalType": "uint256",
          "name": "tokenId",
          "type": "uint256"
        }
      ],
      "name": "ownerOf",
      "outputs": [
        {
          "internalType": "address",
          "name": "",
          "type": "address"
        }
      ],
      "stateMutability": "view",
      "type": "function"
    },
    {
      "inputs": [
        {
          "internalType": "uint256",
          "name": "tokenId",
          "type": "uint256"
        },
        {
          "internalType": "string",
          "name": "uri",
          "type": "string"
        },
        {
          "internalType": "bytes",
          "name": "signature",
          "type": "bytes"
        }
      ],
      "name": "redeem",
      "outputs": [],
      "stateMutability": "payable",
      "type": "function"
    },
    {
      "inputs": [
        {
          "internalType": "bytes32",
          "name": "role",
          "type": "bytes32"
        },
        {
          "internalType": "address",
          "name": "account",
          "type": "address"
        }
      ],
      "name": "renounceRole",
      "outputs": [],
      "stateMutability": "nonpayable",
      "type": "function"
    },
    {
      "inputs": [
        {
          "internalType": "bytes32",
          "name": "role",
          "type": "bytes32"
        },
        {
          "internalType": "address",
          "name": "account",
          "type": "address"
        }
      ],
      "name": "revokeRole",
      "outputs": [],
      "stateMutability": "nonpayable",
      "type": "function"
    },
    {
      "inputs": [
        {
          "internalType": "address",
          "name": "from",
          "type": "address"
        },
        {
          "internalType": "address",
          "name": "to",
          "type": "address"
        },
        {
          "internalType": "uint256",
          "name": "tokenId",
          "type": "uint256"
        }
      ],
      "name": "safeTransferFrom",
      "outputs": [],
      "stateMutability": "nonpayable",
      "type": "function"
    },
    {
      "inputs": [
        {
          "internalType": "address",
          "name": "from",
          "type": "address"
        },
        {
          "internalType": "address",
          "name": "to",
          "type": "address"
        },
        {
          "internalType": "uint256",
          "name": "tokenId",
          "type": "uint256"
        },
        {
          "internalType": "bytes",
          "name": "_data",
          "type": "bytes"
        }
      ],
      "name": "safeTransferFrom",
      "outputs": [],
      "stateMutability": "nonpayable",
      "type": "function"
    },
    {
      "inputs": [
        {
          "internalType": "address",
          "name": "operator",
          "type": "address"
        },
        {
          "internalType": "bool",
          "name": "approved",
          "type": "bool"
        }
      ],
      "name": "setApprovalForAll",
      "outputs": [],
      "stateMutability": "nonpayable",
      "type": "function"
    },
    {
      "inputs": [
        {
          "internalType": "bytes4",
          "name": "interfaceId",
          "type": "bytes4"
        }
      ],
      "name": "supportsInterface",
      "outputs": [
        {
          "internalType": "bool",
          "name": "",
          "type": "bool"
        }
      ],
      "stateMutability": "view",
      "type": "function"
    },
    {
      "inputs": [],
      "name": "symbol",
      "outputs": [
        {
          "internalType": "string",
          "name": "",
          "type": "string"
        }
      ],
      "stateMutability": "view",
      "type": "function"
    },
    {
      "inputs": [
        {
          "internalType": "uint256",
          "name": "tokenId",
          "type": "uint256"
        }
      ],
      "name": "tokenURI",
      "outputs": [
        {
          "internalType": "string",
          "name": "",
          "type": "string"
        }
      ],
      "stateMutability": "view",
      "type": "function"
    },
    {
      "inputs": [
        {
          "internalType": "address",
          "name": "from",
          "type": "address"
        },
        {
          "internalType": "address",
          "name": "to",
          "type": "address"
        },
        {
          "internalType": "uint256",
          "name": "tokenId",
          "type": "uint256"
        }
      ],
      "name": "transferFrom",
      "outputs": [],
      "stateMutability": "nonpayable",
      "type": "function"
    }
  ],
  "bytecode": "0x7f8b73c3c69bb8fe3d512ecc4cf759cc79239f7b179b0ffacaa9a75d522b39400f6009819055600b6080526a42756c6c6965766572736560a81b60a052610100604052600160c052603160f81b60e052620000a1907f04e1a141bd284a6be4d4cd3427d70220b8d58f3a2b00e586534bbde39c592b8d7fc89efdaa54c0f20c7adf612882df0950f5a951637e0307cdcb4c672f298b8bc64630610120620002cc565b60405160208183030381529060405280519060200120600a55348015620000c757600080fd5b50604080518082018252600780825266098dedee884def60cb1b6020808401828152855180870190965292855284015281519192916200010a9160009162000226565b5080516200012090600190602084019062000226565b505050620001557f9f2df0fed2c77648de5860a4cc508cd0818c85b8b8a1ab4ceeef8d981c8956a6336200015b60201b60201c565b62000335565b6200016782826200016b565b5050565b620001778282620001f7565b620001675760008281526007602090815260408083206001600160a01b03851684529091529020805460ff19166001179055620001b362000222565b6001600160a01b0316816001600160a01b0316837f2f8788117e7eff1d82e926ec794901d17c78024a50270940304540a733656f0d60405160405180910390a45050565b60009182526007602090815260408084206001600160a01b0393909316845291905290205460ff1690565b3390565b8280546200023490620002f8565b90600052602060002090601f016020900481019282620002585760008555620002a3565b82601f106200027357805160ff1916838001178555620002a3565b82800160010185558215620002a3579182015b82811115620002a357825182559160200191906001019062000286565b50620002b1929150620002b5565b5090565b5b80821115620002b15760008155600101620002b6565b9485526020850193909352604084019190915260608301526001600160a01b0316608082015260a00190565b6002810460018216806200030d57607f821691505b602082108114156200032f57634e487b7160e01b600052602260045260246000fd5b50919050565b61267380620003456000396000f3fe60806040526004361061013f5760003560e01c80635e5455ec116100b6578063a22cb4651161006f578063a22cb46514610375578063b88d4fde14610395578063c87b56dd146103b5578063d5391393146103d5578063d547741f146103ea578063e985e9c51461040a5761013f565b80635e5455ec146102d85780636352211e146102eb57806370a082311461030b57806391d148541461032b57806395d89b411461034b578063a217fddf146103605761013f565b806323b872dd1161010857806323b872dd1461020b578063248a9ca31461022b5780632f2ff15d1461025857806336568abe1461027857806342842e0e1461029857806342966c68146102b85761013f565b8062aee1d81461014457806301ffc9a71461017a57806306fdde03146101a7578063081812fc146101c9578063095ea7b3146101e9575b600080fd5b34801561015057600080fd5b5061016461015f366004611c1b565b61042a565b6040516101719190611ddf565b60405180910390f35b34801561018657600080fd5b5061019a610195366004611be3565b6104b3565b6040516101719190611e30565b3480156101b357600080fd5b506101bc6104d5565b6040516101719190611e86565b3480156101d557600080fd5b506101646101e4366004611ba9565b610567565b3480156101f557600080fd5b50610209610204366004611b80565b6105b3565b005b34801561021757600080fd5b50610209610226366004611aa5565b61064b565b34801561023757600080fd5b5061024b610246366004611ba9565b610683565b6040516101719190611e3b565b34801561026457600080fd5b50610209610273366004611bc1565b610698565b34801561028457600080fd5b50610209610293366004611bc1565b6106b4565b3480156102a457600080fd5b506102096102b3366004611aa5565b6106fa565b3480156102c457600080fd5b506102096102d3366004611ba9565b610715565b6102096102e6366004611c8a565b610721565b3480156102f757600080fd5b50610164610306366004611ba9565b610791565b34801561031757600080fd5b5061024b610326366004611a59565b6107c6565b34801561033757600080fd5b5061019a610346366004611bc1565b61080a565b34801561035757600080fd5b506101bc610835565b34801561036c57600080fd5b5061024b610844565b34801561038157600080fd5b50610209610390366004611b46565b610849565b3480156103a157600080fd5b506102096103b0366004611ae0565b61085b565b3480156103c157600080fd5b506101bc6103d0366004611ba9565b610894565b3480156103e157600080fd5b5061024b6109ad565b3480156103f657600080fd5b50610209610405366004611bc1565b6109d1565b34801561041657600080fd5b5061019a610425366004611a73565b6109ed565b6000807f32cfa0b8afda4a26ae8d5d09f1c66e11e30261cab9b6ff66765862e15d01ff7d9050600081878688805190602001206040516020016104709493929190611e44565b6040516020818303038152906040528051906020012090506000610496600a5483610a1b565b905060006104a48287610a4e565b9450505050505b949350505050565b60006104be82610a72565b806104cd57506104cd82610ab2565b90505b919050565b6060600080546104e49061257b565b80601f01602080910402602001604051908101604052809291908181526020018280546105109061257b565b801561055d5780601f106105325761010080835404028352916020019161055d565b820191906000526020600020905b81548152906001019060200180831161054057829003601f168201915b5050505050905090565b600061057282610ad7565b6105975760405162461bcd60e51b815260040161058e90612319565b60405180910390fd5b506000908152600460205260409020546001600160a01b031690565b60006105be82610791565b9050806001600160a01b0316836001600160a01b031614156105f25760405162461bcd60e51b815260040161058e906123b4565b806001600160a01b0316610604610af4565b6001600160a01b03161480610620575061062081610425610af4565b61063c5760405162461bcd60e51b815260040161058e90612113565b6106468383610af8565b505050565b61065c610656610af4565b82610b66565b6106785760405162461bcd60e51b815260040161058e90612436565b610646838383610bea565b60009081526007602052604090206001015490565b6106a182610683565b6106aa81610d1d565b6106468383610d2e565b6106bc610af4565b6001600160a01b0316816001600160a01b0316146106ec5760405162461bcd60e51b815260040161058e90612487565b6106f68282610db5565b5050565b6106468383836040518060200160405280600081525061085b565b61071e81610e3a565b50565b600061072f8484338561042a565b905061075b7f9f2df0fed2c77648de5860a4cc508cd0818c85b8b8a1ab4ceeef8d981c8956a68261080a565b6107775760405162461bcd60e51b815260040161058e906123f5565b6107813385610e7a565b61078b8484610f61565b50505050565b6000818152600260205260408120546001600160a01b0316806104cd5760405162461bcd60e51b815260040161058e906121ba565b60006001600160a01b0382166107ee5760405162461bcd60e51b815260040161058e90612170565b506001600160a01b031660009081526003602052604090205490565b60009182526007602090815260408084206001600160a01b0393909316845291905290205460ff1690565b6060600180546104e49061257b565b600081565b6106f6610854610af4565b8383610fa5565b61086c610866610af4565b83610b66565b6108885760405162461bcd60e51b815260040161058e90612436565b61078b84848484611048565b606061089f82610ad7565b6108bb5760405162461bcd60e51b815260040161058e906122c8565b600082815260066020526040812080546108d49061257b565b80601f01602080910402602001604051908101604052809291908181526020018280546109009061257b565b801561094d5780601f106109225761010080835404028352916020019161094d565b820191906000526020600020905b81548152906001019060200180831161093057829003601f168201915b50505050509050600061095e61107b565b9050805160001415610972575090506104d0565b8151156109a457808260405160200161098c929190611d20565b604051602081830303815290604052925050506104d0565b6104ab8461108d565b7f9f2df0fed2c77648de5860a4cc508cd0818c85b8b8a1ab4ceeef8d981c8956a681565b6109da82610683565b6109e381610d1d565b6106468383610db5565b6001600160a01b03918216600090815260056020908152604080832093909416825291909152205460ff1690565b60008282604051602001610a30929190611d4f565b60405160208183030381529060405280519060200120905092915050565b6000806000610a5d8585611110565b91509150610a6a81611180565b509392505050565b60006001600160e01b031982166380ac58cd60e01b1480610aa357506001600160e01b03198216635b5e139f60e01b145b806104cd57506104cd826112ad565b60006001600160e01b03198216637965db0b60e01b14806104cd57506104cd82610a72565b6000908152600260205260409020546001600160a01b0316151590565b3390565b600081815260046020526040902080546001600160a01b0319166001600160a01b0384169081179091558190610b2d82610791565b6001600160a01b03167f8c5be1e5ebec7d5bd14f71427d1e84f3dd0314c0f7b2291e5b200ac8c7c3b92560405160405180910390a45050565b6000610b7182610ad7565b610b8d5760405162461bcd60e51b815260040161058e906120c7565b6000610b9883610791565b9050806001600160a01b0316846001600160a01b03161480610bbf5750610bbf81856109ed565b806104ab5750836001600160a01b0316610bd884610567565b6001600160a01b031614949350505050565b826001600160a01b0316610bfd82610791565b6001600160a01b031614610c235760405162461bcd60e51b815260040161058e90611f8e565b6001600160a01b038216610c495760405162461bcd60e51b815260040161058e9061200a565b610c54838383610646565b610c5f600082610af8565b6001600160a01b0383166000908152600360205260408120805460019290610c88908490612521565b90915550506001600160a01b0382166000908152600360205260408120805460019290610cb69084906124d6565b909155505060008181526002602052604080822080546001600160a01b0319166001600160a01b0386811691821790925591518493918716917fddf252ad1be2c89b69c2b068fc378daa952ba7f163c4a11628f55a4df523b3ef91a4610646838383610646565b61071e81610d29610af4565b6112c6565b610d38828261080a565b6106f65760008281526007602090815260408083206001600160a01b03851684529091529020805460ff19166001179055610d71610af4565b6001600160a01b0316816001600160a01b0316837f2f8788117e7eff1d82e926ec794901d17c78024a50270940304540a733656f0d60405160405180910390a45050565b610dbf828261080a565b156106f65760008281526007602090815260408083206001600160a01b03851684529091529020805460ff19169055610df6610af4565b6001600160a01b0316816001600160a01b0316837ff6391f5c32d9c69d2a47ea670b442974b53935d1edc7fd64eb21e047a839171b60405160405180910390a45050565b610e438161132a565b60008181526006602052604090208054610e5c9061257b565b15905061071e57600081815260066020526040812061071e916118e6565b6001600160a01b038216610ea05760405162461bcd60e51b815260040161058e90612293565b610ea981610ad7565b15610ec65760405162461bcd60e51b815260040161058e90611fd3565b610ed260008383610646565b6001600160a01b0382166000908152600360205260408120805460019290610efb9084906124d6565b909155505060008181526002602052604080822080546001600160a01b0319166001600160a01b03861690811790915590518392907fddf252ad1be2c89b69c2b068fc378daa952ba7f163c4a11628f55a4df523b3ef908290a46106f660008383610646565b610f6a82610ad7565b610f865760405162461bcd60e51b815260040161058e90612203565b6000828152600660209081526040909120825161064692840190611922565b816001600160a01b0316836001600160a01b03161415610fd75760405162461bcd60e51b815260040161058e9061204e565b6001600160a01b0383811660008181526005602090815260408083209487168084529490915290819020805460ff1916851515179055517f17307eab39ab6107e8899845ad3d59bd9653f200f220920489ca2b5937696c319061103b908590611e30565b60405180910390a3505050565b611053848484610bea565b61105f848484846113d9565b61078b5760405162461bcd60e51b815260040161058e90611f3c565b60408051602081019091526000815290565b606061109882610ad7565b6110b45760405162461bcd60e51b815260040161058e90612365565b60006110be61107b565b905060008151116110de5760405180602001604052806000815250611109565b806110e8846114f1565b6040516020016110f9929190611d20565b6040516020818303038152906040525b9392505050565b6000808251604114156111475760208301516040840151606085015160001a61113b8782858561160c565b94509450505050611179565b82516040141561117157602083015160408401516111668683836116ec565b935093505050611179565b506000905060025b9250929050565b60008160048111156111a257634e487b7160e01b600052602160045260246000fd5b14156111ad5761071e565b60018160048111156111cf57634e487b7160e01b600052602160045260246000fd5b14156111ed5760405162461bcd60e51b815260040161058e90611e99565b600281600481111561120f57634e487b7160e01b600052602160045260246000fd5b141561122d5760405162461bcd60e51b815260040161058e90611f05565b600381600481111561124f57634e487b7160e01b600052602160045260246000fd5b141561126d5760405162461bcd60e51b815260040161058e90612085565b600481600481111561128f57634e487b7160e01b600052602160045260246000fd5b141561071e5760405162461bcd60e51b815260040161058e90612251565b6001600160e01b031981166301ffc9a760e01b14919050565b6112d0828261080a565b6106f6576112e8816001600160a01b03166014611725565b6112f3836020611725565b604051602001611304929190611d6a565b60408051601f198184030181529082905262461bcd60e51b825261058e91600401611e86565b600061133582610791565b905061134381600084610646565b61134e600083610af8565b6001600160a01b0381166000908152600360205260408120805460019290611377908490612521565b909155505060008281526002602052604080822080546001600160a01b0319169055518391906001600160a01b038416907fddf252ad1be2c89b69c2b068fc378daa952ba7f163c4a11628f55a4df523b3ef908390a46106f681600084610646565b60006113ed846001600160a01b03166118d7565b156114e957836001600160a01b031663150b7a02611409610af4565b8786866040518563ffffffff1660e01b815260040161142b9493929190611df3565b602060405180830381600087803b15801561144557600080fd5b505af1925050508015611475575060408051601f3d908101601f1916820190925261147291810190611bff565b60015b6114cf573d8080156114a3576040519150601f19603f3d011682016040523d82523d6000602084013e6114a8565b606091505b5080516114c75760405162461bcd60e51b815260040161058e90611f3c565b805181602001fd5b6001600160e01b031916630a85bd0160e11b1490506104ab565b5060016104ab565b60608161151657506040805180820190915260018152600360fc1b60208201526104d0565b8160005b8115611540578061152a816125b6565b91506115399050600a836124ee565b915061151a565b60008167ffffffffffffffff81111561156957634e487b7160e01b600052604160045260246000fd5b6040519080825280601f01601f191660200182016040528015611593576020820181803683370190505b5090505b84156104ab576115a8600183612521565b91506115b5600a866125d1565b6115c09060306124d6565b60f81b8183815181106115e357634e487b7160e01b600052603260045260246000fd5b60200101906001600160f81b031916908160001a905350611605600a866124ee565b9450611597565b6000807f7fffffffffffffffffffffffffffffff5d576e7357a4501ddfe92f46681b20a083111561164357506000905060036116e3565b8460ff16601b1415801561165b57508460ff16601c14155b1561166c57506000905060046116e3565b6000600187878787604051600081526020016040526040516116919493929190611e68565b6020604051602081039080840390855afa1580156116b3573d6000803e3d6000fd5b5050604051601f1901519150506001600160a01b0381166116dc576000600192509250506116e3565b9150600090505b94509492505050565b6000806001600160ff1b0383168161170960ff86901c601b6124d6565b90506117178782888561160c565b935093505050935093915050565b60606000611734836002612502565b61173f9060026124d6565b67ffffffffffffffff81111561176557634e487b7160e01b600052604160045260246000fd5b6040519080825280601f01601f19166020018201604052801561178f576020820181803683370190505b509050600360fc1b816000815181106117b857634e487b7160e01b600052603260045260246000fd5b60200101906001600160f81b031916908160001a905350600f60fb1b816001815181106117f557634e487b7160e01b600052603260045260246000fd5b60200101906001600160f81b031916908160001a9053506000611819846002612502565b6118249060016124d6565b90505b60018111156118b8576f181899199a1a9b1b9c1cb0b131b232b360811b85600f166010811061186657634e487b7160e01b600052603260045260246000fd5b1a60f81b82828151811061188a57634e487b7160e01b600052603260045260246000fd5b60200101906001600160f81b031916908160001a90535060049490941c936118b181612564565b9050611827565b5083156111095760405162461bcd60e51b815260040161058e90611ed0565b6001600160a01b03163b151590565b5080546118f29061257b565b6000825580601f10611904575061071e565b601f01602090049060005260206000209081019061071e91906119a6565b82805461192e9061257b565b90600052602060002090601f0160209004810192826119505760008555611996565b82601f1061196957805160ff1916838001178555611996565b82800160010185558215611996579182015b8281111561199657825182559160200191906001019061197b565b506119a29291506119a6565b5090565b5b808211156119a257600081556001016119a7565b80356001600160a01b03811681146104d057600080fd5b600082601f8301126119e2578081fd5b813567ffffffffffffffff808211156119fd576119fd612611565b604051601f8301601f19908116603f01168101908282118183101715611a2557611a25612611565b81604052838152866020858801011115611a3d578485fd5b8360208701602083013792830160200193909352509392505050565b600060208284031215611a6a578081fd5b611109826119bb565b60008060408385031215611a85578081fd5b611a8e836119bb565b9150611a9c602084016119bb565b90509250929050565b600080600060608486031215611ab9578081fd5b611ac2846119bb565b9250611ad0602085016119bb565b9150604084013590509250925092565b60008060008060808587031215611af5578081fd5b611afe856119bb565b9350611b0c602086016119bb565b925060408501359150606085013567ffffffffffffffff811115611b2e578182fd5b611b3a878288016119d2565b91505092959194509250565b60008060408385031215611b58578182fd5b611b61836119bb565b915060208301358015158114611b75578182fd5b809150509250929050565b60008060408385031215611b92578182fd5b611b9b836119bb565b946020939093013593505050565b600060208284031215611bba578081fd5b5035919050565b60008060408385031215611bd3578182fd5b82359150611a9c602084016119bb565b600060208284031215611bf4578081fd5b813561110981612627565b600060208284031215611c10578081fd5b815161110981612627565b60008060008060808587031215611c30578384fd5b84359350602085013567ffffffffffffffff80821115611c4e578485fd5b611c5a888389016119d2565b9450611c68604088016119bb565b93506060870135915080821115611c7d578283fd5b50611b3a878288016119d2565b600080600060608486031215611c9e578081fd5b83359250602084013567ffffffffffffffff80821115611cbc578283fd5b611cc8878388016119d2565b93506040860135915080821115611cdd578283fd5b50611cea868287016119d2565b9150509250925092565b60008151808452611d0c816020860160208601612538565b601f01601f19169290920160200192915050565b60008351611d32818460208801612538565b835190830190611d46818360208801612538565b01949350505050565b61190160f01b81526002810192909252602282015260420190565b60007f416363657373436f6e74726f6c3a206163636f756e742000000000000000000082528351611da2816017850160208801612538565b7001034b99036b4b9b9b4b733903937b6329607d1b6017918401918201528351611dd3816028840160208801612538565b01602801949350505050565b6001600160a01b0391909116815260200190565b6001600160a01b0385811682528416602082015260408101839052608060608201819052600090611e2690830184611cf4565b9695505050505050565b901515815260200190565b90815260200190565b93845260208401929092526001600160a01b03166040830152606082015260800190565b93845260ff9290921660208401526040830152606082015260800190565b6000602082526111096020830184611cf4565b60208082526018908201527f45434453413a20696e76616c6964207369676e61747572650000000000000000604082015260600190565b6020808252818101527f537472696e67733a20686578206c656e67746820696e73756666696369656e74604082015260600190565b6020808252601f908201527f45434453413a20696e76616c6964207369676e6174757265206c656e67746800604082015260600190565b60208082526032908201527f4552433732313a207472616e7366657220746f206e6f6e20455243373231526560408201527131b2b4bb32b91034b6b83632b6b2b73a32b960711b606082015260800190565b60208082526025908201527f4552433732313a207472616e736665722066726f6d20696e636f72726563742060408201526437bbb732b960d91b606082015260800190565b6020808252601c908201527f4552433732313a20746f6b656e20616c7265616479206d696e74656400000000604082015260600190565b60208082526024908201527f4552433732313a207472616e7366657220746f20746865207a65726f206164646040820152637265737360e01b606082015260800190565b60208082526019908201527f4552433732313a20617070726f766520746f2063616c6c657200000000000000604082015260600190565b60208082526022908201527f45434453413a20696e76616c6964207369676e6174757265202773272076616c604082015261756560f01b606082015260800190565b6020808252602c908201527f4552433732313a206f70657261746f7220717565727920666f72206e6f6e657860408201526b34b9ba32b73a103a37b5b2b760a11b606082015260800190565b60208082526038908201527f4552433732313a20617070726f76652063616c6c6572206973206e6f74206f7760408201527f6e6572206e6f7220617070726f76656420666f7220616c6c0000000000000000606082015260800190565b6020808252602a908201527f4552433732313a2062616c616e636520717565727920666f7220746865207a65604082015269726f206164647265737360b01b606082015260800190565b60208082526029908201527f4552433732313a206f776e657220717565727920666f72206e6f6e657869737460408201526832b73a103a37b5b2b760b91b606082015260800190565b6020808252602e908201527f45524337323155524953746f726167653a2055524920736574206f66206e6f6e60408201526d32bc34b9ba32b73a103a37b5b2b760911b606082015260800190565b60208082526022908201527f45434453413a20696e76616c6964207369676e6174757265202776272076616c604082015261756560f01b606082015260800190565b6020808252818101527f4552433732313a206d696e7420746f20746865207a65726f2061646472657373604082015260600190565b60208082526031908201527f45524337323155524953746f726167653a2055524920717565727920666f72206040820152703737b732bc34b9ba32b73a103a37b5b2b760791b606082015260800190565b6020808252602c908201527f4552433732313a20617070726f76656420717565727920666f72206e6f6e657860408201526b34b9ba32b73a103a37b5b2b760a11b606082015260800190565b6020808252602f908201527f4552433732314d657461646174613a2055524920717565727920666f72206e6f60408201526e3732bc34b9ba32b73a103a37b5b2b760891b606082015260800190565b60208082526021908201527f4552433732313a20617070726f76616c20746f2063757272656e74206f776e656040820152603960f91b606082015260800190565b60208082526021908201527f5369676e617475726520696e76616c6964206f7220756e617574686f72697a656040820152601960fa1b606082015260800190565b60208082526031908201527f4552433732313a207472616e736665722063616c6c6572206973206e6f74206f6040820152701ddb995c881b9bdc88185c1c1c9bdd9959607a1b606082015260800190565b6020808252602f908201527f416363657373436f6e74726f6c3a2063616e206f6e6c792072656e6f756e636560408201526e103937b632b9903337b91039b2b63360891b606082015260800190565b600082198211156124e9576124e96125e5565b500190565b6000826124fd576124fd6125fb565b500490565b600081600019048311821515161561251c5761251c6125e5565b500290565b600082821015612533576125336125e5565b500390565b60005b8381101561255357818101518382015260200161253b565b8381111561078b5750506000910152565b600081612573576125736125e5565b506000190190565b60028104600182168061258f57607f821691505b602082108114156125b057634e487b7160e01b600052602260045260246000fd5b50919050565b60006000198214156125ca576125ca6125e5565b5060010190565b6000826125e0576125e06125fb565b500690565b634e487b7160e01b600052601160045260246000fd5b634e487b7160e01b600052601260045260246000fd5b634e487b7160e01b600052604160045260246000fd5b6001600160e01b03198116811461071e57600080fdfea26469706673582212204fda5a7dbab3caafc1062eb4e9f8f0309236f06084bf970c035080a0af69ac1564736f6c63430008010033",
  "linkReferences": {},
  "deployedLinkReferences": {}
}