{
  "_format": "hh-sol-artifact-1",
  "contractName": "LootBoxRedemer",
  "sourceName": "contracts/LootBoxRedemer.sol",
  "abi": [
    {
      "anonymous": false,
      "inputs": [
        {
          "indexed": true,
          "internalType": "address",
          "name": "previousOwner",
          "type": "address"
        },
        {
          "indexed": true,
          "internalType": "address",
          "name": "newOwner",
          "type": "address"
        }
      ],
      "name": "OwnershipTransferred",
      "type": "event"
    },
    {
      "anonymous": false,
      "inputs": [
        {
          "indexed": false,
          "internalType": "uint256",
          "name": "lootBoxType",
          "type": "uint256"
        },
        {
          "indexed": false,
          "internalType": "uint256",
          "name": "paidAmount",
          "type": "uint256"
        },
        {
          "indexed": false,
          "internalType": "address",
          "name": "redeemer",
          "type": "address"
        }
      ],
      "name": "RedeemLootBox",
      "type": "event"
    },
    {
      "anonymous": false,
      "inputs": [
        {
          "indexed": true,
          "internalType": "uint256",
          "name": "amount",
          "type": "uint256"
        },
        {
          "indexed": true,
          "internalType": "address",
          "name": "claimer",
          "type": "address"
        }
      ],
      "name": "RedeemedBullReward",
      "type": "event"
    },
    {
      "inputs": [
        {
          "internalType": "address",
          "name": "erc1155Address",
          "type": "address"
        },
        {
          "internalType": "uint256",
          "name": "collectionId",
          "type": "uint256"
        },
        {
          "internalType": "uint256",
          "name": "amount",
          "type": "uint256"
        },
        {
          "internalType": "address",
          "name": "redeemer",
          "type": "address"
        },
        {
          "internalType": "bytes",
          "name": "signature",
          "type": "bytes"
        }
      ],
      "name": "_validateSigner",
      "outputs": [
        {
          "internalType": "address",
          "name": "",
          "type": "address"
        }
      ],
      "stateMutability": "view",
      "type": "function"
    },
    {
      "inputs": [
        {
          "internalType": "address",
          "name": "erc20Address",
          "type": "address"
        },
        {
          "internalType": "uint256",
          "name": "amount",
          "type": "uint256"
        },
        {
          "internalType": "address",
          "name": "redeemer",
          "type": "address"
        },
        {
          "internalType": "bytes",
          "name": "signature",
          "type": "bytes"
        }
      ],
      "name": "_validateSigner",
      "outputs": [
        {
          "internalType": "address",
          "name": "",
          "type": "address"
        }
      ],
      "stateMutability": "view",
      "type": "function"
    },
    {
      "inputs": [
        {
          "internalType": "uint256",
          "name": "lootBoxType",
          "type": "uint256"
        },
        {
          "internalType": "address",
          "name": "erc20Address",
          "type": "address"
        },
        {
          "internalType": "uint256",
          "name": "amount",
          "type": "uint256"
        },
        {
          "internalType": "uint256",
          "name": "blockNumber",
          "type": "uint256"
        },
        {
          "internalType": "address",
          "name": "redeemer",
          "type": "address"
        },
        {
          "internalType": "bytes",
          "name": "signature",
          "type": "bytes"
        }
      ],
      "name": "_validateSigner",
      "outputs": [
        {
          "internalType": "address",
          "name": "",
          "type": "address"
        }
      ],
      "stateMutability": "view",
      "type": "function"
    },
    {
      "inputs": [
        {
          "internalType": "address",
          "name": "newMasterAddress",
          "type": "address"
        }
      ],
      "name": "changeMasterAddresss",
      "outputs": [],
      "stateMutability": "nonpayable",
      "type": "function"
    },
    {
      "inputs": [
        {
          "internalType": "address",
          "name": "",
          "type": "address"
        }
      ],
      "name": "claimedAmount",
      "outputs": [
        {
          "internalType": "uint256",
          "name": "",
          "type": "uint256"
        }
      ],
      "stateMutability": "view",
      "type": "function"
    },
    {
      "inputs": [
        {
          "internalType": "address",
          "name": "",
          "type": "address"
        },
        {
          "internalType": "uint256",
          "name": "",
          "type": "uint256"
        }
      ],
      "name": "claimedERC1155Assets",
      "outputs": [
        {
          "internalType": "uint256",
          "name": "",
          "type": "uint256"
        }
      ],
      "stateMutability": "view",
      "type": "function"
    },
    {
      "inputs": [
        {
          "internalType": "address",
          "name": "",
          "type": "address"
        },
        {
          "internalType": "uint256",
          "name": "",
          "type": "uint256"
        }
      ],
      "name": "lootBoxPaidDetails",
      "outputs": [
        {
          "internalType": "uint256",
          "name": "",
          "type": "uint256"
        }
      ],
      "stateMutability": "view",
      "type": "function"
    },
    {
      "inputs": [],
      "name": "masterAddress",
      "outputs": [
        {
          "internalType": "address",
          "name": "",
          "type": "address"
        }
      ],
      "stateMutability": "view",
      "type": "function"
    },
    {
      "inputs": [],
      "name": "owner",
      "outputs": [
        {
          "internalType": "address",
          "name": "",
          "type": "address"
        }
      ],
      "stateMutability": "view",
      "type": "function"
    },
    {
      "inputs": [
        {
          "internalType": "uint256",
          "name": "lootBoxType",
          "type": "uint256"
        },
        {
          "internalType": "address",
          "name": "erc20Address",
          "type": "address"
        },
        {
          "internalType": "uint256",
          "name": "amount",
          "type": "uint256"
        },
        {
          "internalType": "uint256",
          "name": "blockNumber",
          "type": "uint256"
        },
        {
          "internalType": "bytes",
          "name": "signature",
          "type": "bytes"
        }
      ],
      "name": "payFee",
      "outputs": [],
      "stateMutability": "nonpayable",
      "type": "function"
    },
    {
      "inputs": [
        {
          "internalType": "uint256",
          "name": "amount",
          "type": "uint256"
        },
        {
          "internalType": "address",
          "name": "erc20Address",
          "type": "address"
        },
        {
          "internalType": "bytes",
          "name": "signature",
          "type": "bytes"
        }
      ],
      "name": "redeemBull",
      "outputs": [],
      "stateMutability": "nonpayable",
      "type": "function"
    },
    {
      "inputs": [
        {
          "internalType": "address",
          "name": "erc1155Address",
          "type": "address"
        },
        {
          "internalType": "uint256",
          "name": "collectionId",
          "type": "uint256"
        },
        {
          "internalType": "uint256",
          "name": "amount",
          "type": "uint256"
        },
        {
          "internalType": "bytes",
          "name": "signature",
          "type": "bytes"
        }
      ],
      "name": "redeemERC1155Assets",
      "outputs": [],
      "stateMutability": "nonpayable",
      "type": "function"
    },
    {
      "inputs": [],
      "name": "renounceOwnership",
      "outputs": [],
      "stateMutability": "nonpayable",
      "type": "function"
    },
    {
      "inputs": [
        {
          "internalType": "address",
          "name": "_cancellationRegistry",
          "type": "address"
        }
      ],
      "name": "setRegistryContracts",
      "outputs": [],
      "stateMutability": "nonpayable",
      "type": "function"
    },
    {
      "inputs": [
        {
          "internalType": "address",
          "name": "newOwner",
          "type": "address"
        }
      ],
      "name": "transferOwnership",
      "outputs": [],
      "stateMutability": "nonpayable",
      "type": "function"
    }
  ],
  "bytecode": "0x7f8b73c3c69bb8fe3d512ecc4cf759cc79239f7b179b0ffacaa9a75d522b39400f6001818155600b6080526a42756c6c6965766572736560a81b60a05261010060405260c052603160f81b60e05261009d907f04e1a141bd284a6be4d4cd3427d70220b8d58f3a2b00e586534bbde39c592b8d7fc89efdaa54c0f20c7adf612882df0950f5a951637e0307cdcb4c672f298b8bc6463061012061012c565b604051602081830303815290604052805190602001206002553480156100c257600080fd5b506100d36100ce6100d8565b6100dc565b610158565b3390565b600080546001600160a01b038381166001600160a01b0319831681178455604051919092169283917f8be0079c531659141344cd1fd0a4f28419497f9722a3daafe3b4186f6b6457e09190a35050565b9485526020850193909352604084019190915260608301526001600160a01b0316608082015260a00190565b6114d1806101676000396000f3fe608060405234801561001057600080fd5b50600436106100f55760003560e01c80638da5cb5b11610097578063cf44874c11610066578063cf44874c146101da578063d365a08e146101ed578063f2fde38b146101f5578063fdc8673a14610208576100f5565b80638da5cb5b146101995780638eb1eddb146101a1578063a83ffa82146101b4578063bee46ef9146101c7576100f5565b80633f78561b116100d35780633f78561b1461014b5780635380d4151461016b57806353f4dc521461017e578063715018a614610191576100f5565b806304e86903146100fa57806310a3705814610123578063309da13e14610136575b600080fd5b61010d610108366004610e16565b61021b565b60405161011a91906113f9565b60405180910390f35b61010d610131366004610e37565b61022d565b610149610144366004610fb5565b61024a565b005b61015e610159366004610ec6565b610301565b60405161011a91906110ed565b61015e610179366004610e60565b610384565b61014961018c366004611082565b610404565b610149610637565b61015e610682565b6101496101af366004610e16565b610691565b61015e6101c236600461100a565b6106f2565b6101496101d5366004610e16565b610778565b61010d6101e8366004610e37565b61079a565b61015e6107b7565b610149610203366004610e16565b6107c6565b610149610216366004610f36565b610837565b60056020526000908152604090205481565b600760209081526000928352604080842090915290825290205481565b600061025883853385610384565b6003549091506001600160a01b038083169116146102915760405162461bcd60e51b815260040161028890611239565b60405180910390fd5b336000818152600560205260408120546102ab9087611458565b90506102b785826108cb565b6001600160a01b0382166000818152600560205260408082208990555183917f36b07111a24a6e89eb5d0606af35e2b376c146b288c5eccad4fc862259af6b6a91a3505050505050565b6000807f45a1d7aa447794781987c9e9b7bbb1ae9aa8309d1dbb97a1ba124ba772e97e6c905060008188888888604051602001610342959493929190611184565b604051602081830303815290604052805190602001209050600061036860025483610986565b9050600061037682876109b9565b9a9950505050505050505050565b6000807feae7f00d4825c630591aad80fe9759a6d9ae1efc2b15d512731601f078bbbcbb90506000818787876040516020016103c3949392919061115d565b60405160208183030381529060405280519060200120905060006103e960025483610986565b905060006103f782876109b9565b9998505050505050505050565b600480546040516305c8962160e41b81526001600160a01b0390911691635c89621091610433913391016110ed565b60206040518083038186803b15801561044b57600080fd5b505afa15801561045f573d6000803e3d6000fd5b505050506040513d601f19601f820116820180604052508101906104839190610f9d565b82116104a15760405162461bcd60e51b815260040161028890611399565b60006104b18686868633876106f2565b6003549091506001600160a01b038083169116146104e15760405162461bcd60e51b815260040161028890611239565b6040516323b872dd60e01b81526001600160a01b038616906323b872dd9061051190339030908990600401611101565b602060405180830381600087803b15801561052b57600080fd5b505af115801561053f573d6000803e3d6000fd5b505050506040513d601f19601f820116820180604052508101906105639190610f7d565b503360009081526007602090815260408083208984529091528120805486929061058e908490611421565b909155505060048054604051631f4d52d360e11b81526001600160a01b0390911691633e9aa5a6916105c2913391016110ed565b600060405180830381600087803b1580156105dc57600080fd5b505af11580156105f0573d6000803e3d6000fd5b505050507fe5fb87c34923fe68c77392a5c899f5a79c08873742b66af535ede6a0a4ae55b486853360405161062793929190611402565b60405180910390a1505050505050565b61063f6109dd565b6001600160a01b0316610650610682565b6001600160a01b0316146106765760405162461bcd60e51b8152600401610288906113c4565b61068060006109e1565b565b6000546001600160a01b031690565b6106996109dd565b6001600160a01b03166106aa610682565b6001600160a01b0316146106d05760405162461bcd60e51b8152600401610288906113c4565b600480546001600160a01b0319166001600160a01b0392909216919091179055565b6000807ff80083d8eaaa66e99c7cfe14e29021579f2807b0af0346b70582503a37ffcd3f90506000818989898989604051602001610735969594939291906111b0565b604051602081830303815290604052805190602001209050600061075b60025483610986565b9050600061076982876109b9565b9b9a5050505050505050505050565b600380546001600160a01b0319166001600160a01b0392909216919091179055565b600660209081526000928352604080842090915290825290205481565b6003546001600160a01b031681565b6107ce6109dd565b6001600160a01b03166107df610682565b6001600160a01b0316146108055760405162461bcd60e51b8152600401610288906113c4565b6001600160a01b03811661082b5760405162461bcd60e51b815260040161028890611298565b610834816109e1565b50565b60006108468585853386610301565b6003549091506001600160a01b038083169116146108765760405162461bcd60e51b815260040161028890611239565b33600090815260066020908152604080832087845290915281205461089b9085611458565b90506108a8868683610a31565b505033600090815260066020908152604080832095835294905292909220555050565b806108e85760405162461bcd60e51b815260040161028890611320565b6003546001600160a01b03808416916323b872dd91163361091185670de0b6b3a7640000611439565b6040518463ffffffff1660e01b815260040161092f93929190611101565b602060405180830381600087803b15801561094957600080fd5b505af115801561095d573d6000803e3d6000fd5b505050506040513d601f19601f820116820180604052508101906109819190610f7d565b505050565b6000828260405160200161099b9291906110d2565b60405160208183030381529060405280519060200120905092915050565b60008060006109c88585610abd565b915091506109d581610b2d565b509392505050565b3390565b600080546001600160a01b038381166001600160a01b0319831681178455604051919092169283917f8be0079c531659141344cd1fd0a4f28419497f9722a3daafe3b4186f6b6457e09190a35050565b80610a4e5760405162461bcd60e51b815260040161028890611320565b600354604051637921219560e11b81526001600160a01b038581169263f242432a92610a869290911690339087908790600401611125565b600060405180830381600087803b158015610aa057600080fd5b505af1158015610ab4573d6000803e3d6000fd5b50505050505050565b600080825160411415610af45760208301516040840151606085015160001a610ae887828585610c5a565b94509450505050610b26565b825160401415610b1e5760208301516040840151610b13868383610d3a565b935093505050610b26565b506000905060025b9250929050565b6000816004811115610b4f57634e487b7160e01b600052602160045260246000fd5b1415610b5a57610834565b6001816004811115610b7c57634e487b7160e01b600052602160045260246000fd5b1415610b9a5760405162461bcd60e51b815260040161028890611202565b6002816004811115610bbc57634e487b7160e01b600052602160045260246000fd5b1415610bda5760405162461bcd60e51b815260040161028890611261565b6003816004811115610bfc57634e487b7160e01b600052602160045260246000fd5b1415610c1a5760405162461bcd60e51b8152600401610288906112de565b6004816004811115610c3c57634e487b7160e01b600052602160045260246000fd5b14156108345760405162461bcd60e51b815260040161028890611357565b6000807f7fffffffffffffffffffffffffffffff5d576e7357a4501ddfe92f46681b20a0831115610c915750600090506003610d31565b8460ff16601b14158015610ca957508460ff16601c14155b15610cba5750600090506004610d31565b600060018787878760405160008152602001604052604051610cdf94939291906111e4565b6020604051602081039080840390855afa158015610d01573d6000803e3d6000fd5b5050604051601f1901519150506001600160a01b038116610d2a57600060019250925050610d31565b9150600090505b94509492505050565b6000806001600160ff1b03831681610d5760ff86901c601b611421565b9050610d6587828885610c5a565b935093505050935093915050565b80356001600160a01b0381168114610d8a57600080fd5b919050565b600082601f830112610d9f578081fd5b813567ffffffffffffffff80821115610dba57610dba611485565b604051601f8301601f19908116603f01168101908282118183101715610de257610de2611485565b81604052838152866020858801011115610dfa578485fd5b8360208701602083013792830160200193909352509392505050565b600060208284031215610e27578081fd5b610e3082610d73565b9392505050565b60008060408385031215610e49578081fd5b610e5283610d73565b946020939093013593505050565b60008060008060808587031215610e75578182fd5b610e7e85610d73565b935060208501359250610e9360408601610d73565b9150606085013567ffffffffffffffff811115610eae578182fd5b610eba87828801610d8f565b91505092959194509250565b600080600080600060a08688031215610edd578081fd5b610ee686610d73565b94506020860135935060408601359250610f0260608701610d73565b9150608086013567ffffffffffffffff811115610f1d578182fd5b610f2988828901610d8f565b9150509295509295909350565b60008060008060808587031215610f4b578384fd5b610f5485610d73565b93506020850135925060408501359150606085013567ffffffffffffffff811115610eae578182fd5b600060208284031215610f8e578081fd5b81518015158114610e30578182fd5b600060208284031215610fae578081fd5b5051919050565b600080600060608486031215610fc9578283fd5b83359250610fd960208501610d73565b9150604084013567ffffffffffffffff811115610ff4578182fd5b61100086828701610d8f565b9150509250925092565b60008060008060008060c08789031215611022578081fd5b8635955061103260208801610d73565b9450604087013593506060870135925061104e60808801610d73565b915060a087013567ffffffffffffffff811115611069578182fd5b61107589828a01610d8f565b9150509295509295509295565b600080600080600060a08688031215611099578081fd5b853594506110a960208701610d73565b93506040860135925060608601359150608086013567ffffffffffffffff811115610f1d578182fd5b61190160f01b81526002810192909252602282015260420190565b6001600160a01b0391909116815260200190565b6001600160a01b039384168152919092166020820152604081019190915260600190565b6001600160a01b0394851681529290931660208301526040820152606081019190915260a06080820181905260009082015260c00190565b9384526001600160a01b039283166020850152604084019190915216606082015260800190565b9485526001600160a01b0393841660208601526040850192909252606084015216608082015260a00190565b95865260208601949094526001600160a01b039283166040860152606085019190915260808401521660a082015260c00190565b93845260ff9290921660208401526040830152606082015260800190565b60208082526018908201527f45434453413a20696e76616c6964207369676e61747572650000000000000000604082015260600190565b6020808252600e908201526d24b73b30b634b21029b4b3b732b960911b604082015260600190565b6020808252601f908201527f45434453413a20696e76616c6964207369676e6174757265206c656e67746800604082015260600190565b60208082526026908201527f4f776e61626c653a206e6577206f776e657220697320746865207a65726f206160408201526564647265737360d01b606082015260800190565b60208082526022908201527f45434453413a20696e76616c6964207369676e6174757265202773272076616c604082015261756560f01b606082015260800190565b6020808252601a908201527f43616e6e6f74205769746844726177205a65726f20546f6b656e000000000000604082015260600190565b60208082526022908201527f45434453413a20696e76616c6964207369676e6174757265202776272076616c604082015261756560f01b606082015260800190565b602080825260119082015270496e76616c6964205369676e617475726560781b604082015260600190565b6020808252818101527f4f776e61626c653a2063616c6c6572206973206e6f7420746865206f776e6572604082015260600190565b90815260200190565b92835260208301919091526001600160a01b0316604082015260600190565b600082198211156114345761143461146f565b500190565b60008160001904831182151516156114535761145361146f565b500290565b60008282101561146a5761146a61146f565b500390565b634e487b7160e01b600052601160045260246000fd5b634e487b7160e01b600052604160045260246000fdfea26469706673582212209fb8c34b92815c933e49ba0e4cea317593c2797fd94588a3f7d9db527f6ded6264736f6c63430008010033",
  "linkReferences": {},
  "deployedLinkReferences": {}
}