{
  "_format": "hh-sol-artifact-1",
  "contractName": "LootBoxRedemer",
  "sourceName": "contracts/LootBoxRedemer.sol",
  "abi": [
    {
      "anonymous": false,
      "inputs": [
        {
          "indexed": true,
          "internalType": "address",
          "name": "previousOwner",
          "type": "address"
        },
        {
          "indexed": true,
          "internalType": "address",
          "name": "newOwner",
          "type": "address"
        }
      ],
      "name": "OwnershipTransferred",
      "type": "event"
    },
    {
      "anonymous": false,
      "inputs": [
        {
          "indexed": true,
          "internalType": "uint256",
          "name": "amount",
          "type": "uint256"
        },
        {
          "indexed": true,
          "internalType": "address",
          "name": "claimer",
          "type": "address"
        }
      ],
      "name": "RedeemedBullReward",
      "type": "event"
    },
    {
      "inputs": [
        {
          "internalType": "address",
          "name": "erc20Address",
          "type": "address"
        },
        {
          "internalType": "uint256",
          "name": "amount",
          "type": "uint256"
        },
        {
          "internalType": "bytes",
          "name": "signature",
          "type": "bytes"
        }
      ],
      "name": "_validateSigner",
      "outputs": [
        {
          "internalType": "address",
          "name": "",
          "type": "address"
        }
      ],
      "stateMutability": "view",
      "type": "function"
    },
    {
      "inputs": [
        {
          "internalType": "uint256",
          "name": "rewardId",
          "type": "uint256"
        },
        {
          "internalType": "address",
          "name": "assetAddress",
          "type": "address"
        },
        {
          "internalType": "uint256",
          "name": "tokenId",
          "type": "uint256"
        },
        {
          "internalType": "uint256",
          "name": "tokenAmount",
          "type": "uint256"
        },
        {
          "internalType": "address",
          "name": "redeemer",
          "type": "address"
        },
        {
          "internalType": "bytes",
          "name": "signature",
          "type": "bytes"
        }
      ],
      "name": "_validateSigner",
      "outputs": [
        {
          "internalType": "address",
          "name": "",
          "type": "address"
        }
      ],
      "stateMutability": "view",
      "type": "function"
    },
    {
      "inputs": [
        {
          "internalType": "address",
          "name": "newErc721Address",
          "type": "address"
        }
      ],
      "name": "changeLootBoxAddresss",
      "outputs": [],
      "stateMutability": "nonpayable",
      "type": "function"
    },
    {
      "inputs": [
        {
          "internalType": "address",
          "name": "newMasterAddress",
          "type": "address"
        }
      ],
      "name": "changeMasterAddresss",
      "outputs": [],
      "stateMutability": "nonpayable",
      "type": "function"
    },
    {
      "inputs": [
        {
          "internalType": "uint256",
          "name": "rewardId",
          "type": "uint256"
        },
        {
          "internalType": "address",
          "name": "assetAddress",
          "type": "address"
        },
        {
          "internalType": "uint256",
          "name": "tokenId",
          "type": "uint256"
        },
        {
          "internalType": "uint256",
          "name": "tokenAmount",
          "type": "uint256"
        },
        {
          "internalType": "bytes",
          "name": "signature",
          "type": "bytes"
        }
      ],
      "name": "claimAsset",
      "outputs": [],
      "stateMutability": "nonpayable",
      "type": "function"
    },
    {
      "inputs": [
        {
          "internalType": "address",
          "name": "",
          "type": "address"
        }
      ],
      "name": "claimedAmount",
      "outputs": [
        {
          "internalType": "uint256",
          "name": "",
          "type": "uint256"
        }
      ],
      "stateMutability": "view",
      "type": "function"
    },
    {
      "inputs": [],
      "name": "erc721Address",
      "outputs": [
        {
          "internalType": "address",
          "name": "",
          "type": "address"
        }
      ],
      "stateMutability": "view",
      "type": "function"
    },
    {
      "inputs": [],
      "name": "masterAddress",
      "outputs": [
        {
          "internalType": "address",
          "name": "",
          "type": "address"
        }
      ],
      "stateMutability": "view",
      "type": "function"
    },
    {
      "inputs": [],
      "name": "owner",
      "outputs": [
        {
          "internalType": "address",
          "name": "",
          "type": "address"
        }
      ],
      "stateMutability": "view",
      "type": "function"
    },
    {
      "inputs": [
        {
          "internalType": "uint256",
          "name": "amount",
          "type": "uint256"
        },
        {
          "internalType": "address",
          "name": "erc20Address",
          "type": "address"
        },
        {
          "internalType": "bytes",
          "name": "signature",
          "type": "bytes"
        }
      ],
      "name": "redeemBull",
      "outputs": [],
      "stateMutability": "nonpayable",
      "type": "function"
    },
    {
      "inputs": [],
      "name": "renounceOwnership",
      "outputs": [],
      "stateMutability": "nonpayable",
      "type": "function"
    },
    {
      "inputs": [
        {
          "internalType": "address",
          "name": "_cancellationRegistry",
          "type": "address"
        }
      ],
      "name": "setRegistryContracts",
      "outputs": [],
      "stateMutability": "nonpayable",
      "type": "function"
    },
    {
      "inputs": [
        {
          "internalType": "address",
          "name": "newOwner",
          "type": "address"
        }
      ],
      "name": "transferOwnership",
      "outputs": [],
      "stateMutability": "nonpayable",
      "type": "function"
    }
  ],
  "bytecode": "0x7f8b73c3c69bb8fe3d512ecc4cf759cc79239f7b179b0ffacaa9a75d522b39400f6001818155600b6080526a42756c6c6965766572736560a81b60a05261010060405260c052603160f81b60e05261009d907f04e1a141bd284a6be4d4cd3427d70220b8d58f3a2b00e586534bbde39c592b8d7fc89efdaa54c0f20c7adf612882df0950f5a951637e0307cdcb4c672f298b8bc6463061012061012c565b604051602081830303815290604052805190602001206002553480156100c257600080fd5b506100d36100ce6100d8565b6100dc565b610158565b3390565b600080546001600160a01b038381166001600160a01b0319831681178455604051919092169283917f8be0079c531659141344cd1fd0a4f28419497f9722a3daafe3b4186f6b6457e09190a35050565b9485526020850193909352604084019190915260608301526001600160a01b0316608082015260a00190565b611129806101676000396000f3fe608060405234801561001057600080fd5b50600436106100cf5760003560e01c80638eb1eddb1161008c578063bee46ef911610066578063bee46ef914610183578063d365a08e14610196578063e905dc401461019e578063f2fde38b146101b1576100cf565b80638eb1eddb1461014a5780639e9559161461015d578063a83ffa8214610170576100cf565b806304e86903146100d45780632352a864146100fd578063309da13e14610112578063715018a61461012757806386a396c11461012f5780638da5cb5b14610142575b600080fd5b6100e76100e2366004610b6e565b6101c4565b6040516100f49190611070565b60405180910390f35b6101056101d6565b6040516100f49190610d3f565b610125610120366004610c04565b6101e5565b005b610125610260565b61010561013d366004610b8f565b6102b4565b610105610333565b610125610158366004610b6e565b610342565b61012561016b366004610cbb565b6103a3565b61010561017e366004610c43565b6104f5565b610125610191366004610b6e565b61057b565b61010561059d565b6101256101ac366004610b6e565b6105ac565b6101256101bf366004610b6e565b6105ce565b60066020526000908152604090205481565b6004546001600160a01b031681565b6101f08284836102b4565b503360008181526006602052604081205461020b90866110b0565b9050610217848261063f565b6001600160a01b0382166000818152600660205260408082208890555183917f36b07111a24a6e89eb5d0606af35e2b376c146b288c5eccad4fc862259af6b6a91a35050505050565b6102686106fa565b6001600160a01b0316610279610333565b6001600160a01b0316146102a85760405162461bcd60e51b815260040161029f90610fea565b60405180910390fd5b6102b260006106fe565b565b6000807fcc3ada3d00be93765b43999b79a8699f7fa378140d060a55b7a81dbf5de5f44e90506000818686336040516020016102f39493929190610daf565b60405160208183030381529060405280519060200120905060006103196002548361074e565b905060006103278287610781565b98975050505050505050565b6000546001600160a01b031690565b61034a6106fa565b6001600160a01b031661035b610333565b6001600160a01b0316146103815760405162461bcd60e51b815260040161029f90610fea565b600580546001600160a01b0319166001600160a01b0392909216919091179055565b60055460405163563166a960e01b81526001600160a01b039091169063563166a9906103d3908490600401610e28565b60206040518083038186803b1580156103eb57600080fd5b505afa1580156103ff573d6000803e3d6000fd5b505050506040513d601f19601f820116820180604052508101906104239190610be4565b61043f5760405162461bcd60e51b815260040161029f90611045565b600061044f8686868633876104f5565b6003549091506001600160a01b0380831691161461047f5760405162461bcd60e51b815260040161029f9061101f565b61048b853386866107a5565b600554604051632e442d9960e21b81526001600160a01b039091169063b910b664906104bb908590600401610e28565b600060405180830381600087803b1580156104d557600080fd5b505af11580156104e9573d6000803e3d6000fd5b50505050505050505050565b6000807f5ba1f2fc175ca2291dd213d5045085ebc71454c6a7de6cda5982ea48e3447a0f9050600081898989898960405160200161053896959493929190610dd6565b604051602081830303815290604052805190602001209050600061055e6002548361074e565b9050600061056c8287610781565b9b9a5050505050505050505050565b600380546001600160a01b0319166001600160a01b0392909216919091179055565b6003546001600160a01b031681565b600480546001600160a01b0319166001600160a01b0392909216919091179055565b6105d66106fa565b6001600160a01b03166105e7610333565b6001600160a01b03161461060d5760405162461bcd60e51b815260040161029f90610fea565b6001600160a01b0381166106335760405162461bcd60e51b815260040161029f90610ee9565b61063c816106fe565b50565b8061065c5760405162461bcd60e51b815260040161029f90610f71565b6003546001600160a01b03808416916323b872dd91163361068585670de0b6b3a7640000611091565b6040518463ffffffff1660e01b81526004016106a393929190610d53565b602060405180830381600087803b1580156106bd57600080fd5b505af11580156106d1573d6000803e3d6000fd5b505050506040513d601f19601f820116820180604052508101906106f59190610be4565b505050565b3390565b600080546001600160a01b038381166001600160a01b0319831681178455604051919092169283917f8be0079c531659141344cd1fd0a4f28419497f9722a3daafe3b4186f6b6457e09190a35050565b60008282604051602001610763929190610d24565b60405160208183030381529060405280519060200120905092915050565b60008060006107908585610815565b9150915061079d81610885565b509392505050565b600354604051637921219560e11b81526001600160a01b038681169263f242432a926107dd9290911690879087908790600401610d77565b600060405180830381600087803b1580156107f757600080fd5b505af115801561080b573d6000803e3d6000fd5b5050505050505050565b60008082516041141561084c5760208301516040840151606085015160001a610840878285856109b2565b9450945050505061087e565b825160401415610876576020830151604084015161086b868383610a92565b93509350505061087e565b506000905060025b9250929050565b60008160048111156108a757634e487b7160e01b600052602160045260246000fd5b14156108b25761063c565b60018160048111156108d457634e487b7160e01b600052602160045260246000fd5b14156108f25760405162461bcd60e51b815260040161029f90610e7b565b600281600481111561091457634e487b7160e01b600052602160045260246000fd5b14156109325760405162461bcd60e51b815260040161029f90610eb2565b600381600481111561095457634e487b7160e01b600052602160045260246000fd5b14156109725760405162461bcd60e51b815260040161029f90610f2f565b600481600481111561099457634e487b7160e01b600052602160045260246000fd5b141561063c5760405162461bcd60e51b815260040161029f90610fa8565b6000807f7fffffffffffffffffffffffffffffff5d576e7357a4501ddfe92f46681b20a08311156109e95750600090506003610a89565b8460ff16601b14158015610a0157508460ff16601c14155b15610a125750600090506004610a89565b600060018787878760405160008152602001604052604051610a379493929190610e0a565b6020604051602081039080840390855afa158015610a59573d6000803e3d6000fd5b5050604051601f1901519150506001600160a01b038116610a8257600060019250925050610a89565b9150600090505b94509492505050565b6000806001600160ff1b03831681610aaf60ff86901c601b611079565b9050610abd878288856109b2565b935093505050935093915050565b80356001600160a01b0381168114610ae257600080fd5b919050565b600082601f830112610af7578081fd5b813567ffffffffffffffff80821115610b1257610b126110dd565b604051601f8301601f19908116603f01168101908282118183101715610b3a57610b3a6110dd565b81604052838152866020858801011115610b52578485fd5b8360208701602083013792830160200193909352509392505050565b600060208284031215610b7f578081fd5b610b8882610acb565b9392505050565b600080600060608486031215610ba3578182fd5b610bac84610acb565b925060208401359150604084013567ffffffffffffffff811115610bce578182fd5b610bda86828701610ae7565b9150509250925092565b600060208284031215610bf5578081fd5b81518015158114610b88578182fd5b600080600060608486031215610c18578283fd5b83359250610c2860208501610acb565b9150604084013567ffffffffffffffff811115610bce578182fd5b60008060008060008060c08789031215610c5b578182fd5b86359550610c6b60208801610acb565b94506040870135935060608701359250610c8760808801610acb565b915060a087013567ffffffffffffffff811115610ca2578182fd5b610cae89828a01610ae7565b9150509295509295509295565b600080600080600060a08688031215610cd2578081fd5b85359450610ce260208701610acb565b93506040860135925060608601359150608086013567ffffffffffffffff811115610d0b578182fd5b610d1788828901610ae7565b9150509295509295909350565b61190160f01b81526002810192909252602282015260420190565b6001600160a01b0391909116815260200190565b6001600160a01b039384168152919092166020820152604081019190915260600190565b6001600160a01b0394851681529290931660208301526040820152606081019190915260a06080820181905260009082015260c00190565b9384526001600160a01b039283166020850152604084019190915216606082015260800190565b95865260208601949094526001600160a01b039283166040860152606085019190915260808401521660a082015260c00190565b93845260ff9290921660208401526040830152606082015260800190565b6000602080835283518082850152825b81811015610e5457858101830151858201604001528201610e38565b81811115610e655783604083870101525b50601f01601f1916929092016040019392505050565b60208082526018908201527f45434453413a20696e76616c6964207369676e61747572650000000000000000604082015260600190565b6020808252601f908201527f45434453413a20696e76616c6964207369676e6174757265206c656e67746800604082015260600190565b60208082526026908201527f4f776e61626c653a206e6577206f776e657220697320746865207a65726f206160408201526564647265737360d01b606082015260800190565b60208082526022908201527f45434453413a20696e76616c6964207369676e6174757265202773272076616c604082015261756560f01b606082015260800190565b6020808252601a908201527f43616e6e6f74205769746844726177205a65726f20546f6b656e000000000000604082015260600190565b60208082526022908201527f45434453413a20696e76616c6964207369676e6174757265202776272076616c604082015261756560f01b606082015260800190565b6020808252818101527f4f776e61626c653a2063616c6c6572206973206e6f7420746865206f776e6572604082015260600190565b6020808252600c908201526b2bb937b7339029b4b3b732b960a11b604082015260600190565b602080825260119082015270105b1c9958591e4810d85b98d95b1b1959607a1b604082015260600190565b90815260200190565b6000821982111561108c5761108c6110c7565b500190565b60008160001904831182151516156110ab576110ab6110c7565b500290565b6000828210156110c2576110c26110c7565b500390565b634e487b7160e01b600052601160045260246000fd5b634e487b7160e01b600052604160045260246000fdfea2646970667358221220ce60e523a1534b9e221900cb424c1d50b63a20538a3a3fddae402f93d80e874964736f6c63430008010033",
  "linkReferences": {},
  "deployedLinkReferences": {}
}