{
  "_format": "hh-sol-artifact-1",
  "contractName": "CancellationRegistry",
  "sourceName": "contracts/CancellationRegistry.sol",
  "abi": [
    {
      "anonymous": false,
      "inputs": [
        {
          "indexed": true,
          "internalType": "address",
          "name": "previousOwner",
          "type": "address"
        },
        {
          "indexed": true,
          "internalType": "address",
          "name": "newOwner",
          "type": "address"
        }
      ],
      "name": "OwnershipTransferred",
      "type": "event"
    },
    {
      "inputs": [
        {
          "internalType": "address",
          "name": "registrant",
          "type": "address"
        }
      ],
      "name": "addRegistrant",
      "outputs": [],
      "stateMutability": "nonpayable",
      "type": "function"
    },
    {
      "inputs": [
        {
          "internalType": "address",
          "name": "redeemer",
          "type": "address"
        }
      ],
      "name": "cancelAllPreviousSignatures",
      "outputs": [],
      "stateMutability": "nonpayable",
      "type": "function"
    },
    {
      "inputs": [
        {
          "internalType": "address",
          "name": "redeemer",
          "type": "address"
        }
      ],
      "name": "getLastTransactionBlockNumber",
      "outputs": [
        {
          "internalType": "uint256",
          "name": "",
          "type": "uint256"
        }
      ],
      "stateMutability": "view",
      "type": "function"
    },
    {
      "inputs": [],
      "name": "owner",
      "outputs": [
        {
          "internalType": "address",
          "name": "",
          "type": "address"
        }
      ],
      "stateMutability": "view",
      "type": "function"
    },
    {
      "inputs": [
        {
          "internalType": "address",
          "name": "registrant",
          "type": "address"
        }
      ],
      "name": "removeRegistrant",
      "outputs": [],
      "stateMutability": "nonpayable",
      "type": "function"
    },
    {
      "inputs": [],
      "name": "renounceOwnership",
      "outputs": [],
      "stateMutability": "nonpayable",
      "type": "function"
    },
    {
      "inputs": [
        {
          "internalType": "address",
          "name": "newOwner",
          "type": "address"
        }
      ],
      "name": "transferOwnership",
      "outputs": [],
      "stateMutability": "nonpayable",
      "type": "function"
    }
  ],
  "bytecode": "0x608060405234801561001057600080fd5b5061002161001c610026565b61002a565b61007a565b3390565b600080546001600160a01b038381166001600160a01b0319831681178455604051919092169283917f8be0079c531659141344cd1fd0a4f28419497f9722a3daafe3b4186f6b6457e09190a35050565b61049d806100896000396000f3fe608060405234801561001057600080fd5b506004361061007d5760003560e01c80638cfc93471161005b5780638cfc9347146100c85780638da5cb5b146100db578063bbfcfc1e146100f0578063f2fde38b146101035761007d565b80633e9aa5a6146100825780635c89621014610097578063715018a6146100c0575b600080fd5b61009561009036600461036a565b610116565b005b6100aa6100a536600461036a565b61016a565b6040516100b7919061045e565b60405180910390f35b610095610185565b6100956100d636600461036a565b6101d0565b6100e3610230565b6040516100b79190610398565b6100956100fe36600461036a565b61023f565b61009561011136600461036a565b6102a5565b3360009081526001602052604090205460ff1661014e5760405162461bcd60e51b8152600401610145906103f2565b60405180910390fd5b6001600160a01b03166000908152600260205260409020439055565b6001600160a01b031660009081526002602052604090205490565b61018d610316565b6001600160a01b031661019e610230565b6001600160a01b0316146101c45760405162461bcd60e51b815260040161014590610429565b6101ce600061031a565b565b6101d8610316565b6001600160a01b03166101e9610230565b6001600160a01b03161461020f5760405162461bcd60e51b815260040161014590610429565b6001600160a01b03166000908152600160205260409020805460ff19169055565b6000546001600160a01b031690565b610247610316565b6001600160a01b0316610258610230565b6001600160a01b03161461027e5760405162461bcd60e51b815260040161014590610429565b6001600160a01b03166000908152600160208190526040909120805460ff19169091179055565b6102ad610316565b6001600160a01b03166102be610230565b6001600160a01b0316146102e45760405162461bcd60e51b815260040161014590610429565b6001600160a01b03811661030a5760405162461bcd60e51b8152600401610145906103ac565b6103138161031a565b50565b3390565b600080546001600160a01b038381166001600160a01b0319831681178455604051919092169283917f8be0079c531659141344cd1fd0a4f28419497f9722a3daafe3b4186f6b6457e09190a35050565b60006020828403121561037b578081fd5b81356001600160a01b0381168114610391578182fd5b9392505050565b6001600160a01b0391909116815260200190565b60208082526026908201527f4f776e61626c653a206e6577206f776e657220697320746865207a65726f206160408201526564647265737360d01b606082015260800190565b6020808252601f908201527f5468652063616c6c6572206973206e6f7420612072656769737472616e742e00604082015260600190565b6020808252818101527f4f776e61626c653a2063616c6c6572206973206e6f7420746865206f776e6572604082015260600190565b9081526020019056fea26469706673582212202b641cb3c873723032bd5a27b2dd88f54837f1ae076e430f23d51ddf74992c2564736f6c63430008010033",
  "linkReferences": {},
  "deployedLinkReferences": {}
}