{
  "_format": "hh-sol-artifact-1",
  "contractName": "CancellationRegistry",
  "sourceName": "contracts/CancellationRegistry.sol",
  "abi": [
    {
      "anonymous": false,
      "inputs": [
        {
          "indexed": true,
          "internalType": "address",
          "name": "previousOwner",
          "type": "address"
        },
        {
          "indexed": true,
          "internalType": "address",
          "name": "newOwner",
          "type": "address"
        }
      ],
      "name": "OwnershipTransferred",
      "type": "event"
    },
    {
      "inputs": [
        {
          "internalType": "address",
          "name": "registrant",
          "type": "address"
        }
      ],
      "name": "addRegistrant",
      "outputs": [],
      "stateMutability": "nonpayable",
      "type": "function"
    },
    {
      "inputs": [
        {
          "internalType": "bytes",
          "name": "signature",
          "type": "bytes"
        }
      ],
      "name": "cancelOrder",
      "outputs": [],
      "stateMutability": "nonpayable",
      "type": "function"
    },
    {
      "inputs": [
        {
          "internalType": "address",
          "name": "seller",
          "type": "address"
        },
        {
          "internalType": "address",
          "name": "tokenAddr",
          "type": "address"
        },
        {
          "internalType": "uint256",
          "name": "tokenId",
          "type": "uint256"
        }
      ],
      "name": "cancelPreviousSellOrders",
      "outputs": [],
      "stateMutability": "nonpayable",
      "type": "function"
    },
    {
      "inputs": [
        {
          "internalType": "address",
          "name": "addr",
          "type": "address"
        },
        {
          "internalType": "address",
          "name": "tokenAddr",
          "type": "address"
        },
        {
          "internalType": "uint256",
          "name": "tokenId",
          "type": "uint256"
        }
      ],
      "name": "getSellOrderCancellationBlockNumber",
      "outputs": [
        {
          "internalType": "uint256",
          "name": "",
          "type": "uint256"
        }
      ],
      "stateMutability": "view",
      "type": "function"
    },
    {
      "inputs": [
        {
          "internalType": "bytes",
          "name": "signature",
          "type": "bytes"
        }
      ],
      "name": "isOrderCancelled",
      "outputs": [
        {
          "internalType": "bool",
          "name": "",
          "type": "bool"
        }
      ],
      "stateMutability": "view",
      "type": "function"
    },
    {
      "inputs": [],
      "name": "owner",
      "outputs": [
        {
          "internalType": "address",
          "name": "",
          "type": "address"
        }
      ],
      "stateMutability": "view",
      "type": "function"
    },
    {
      "inputs": [
        {
          "internalType": "address",
          "name": "registrant",
          "type": "address"
        }
      ],
      "name": "removeRegistrant",
      "outputs": [],
      "stateMutability": "nonpayable",
      "type": "function"
    },
    {
      "inputs": [],
      "name": "renounceOwnership",
      "outputs": [],
      "stateMutability": "nonpayable",
      "type": "function"
    },
    {
      "inputs": [
        {
          "internalType": "address",
          "name": "newOwner",
          "type": "address"
        }
      ],
      "name": "transferOwnership",
      "outputs": [],
      "stateMutability": "nonpayable",
      "type": "function"
    }
  ],
  "bytecode": "0x608060405234801561001057600080fd5b5061002161001c610026565b61002a565b61007a565b3390565b600080546001600160a01b038381166001600160a01b0319831681178455604051919092169283917f8be0079c531659141344cd1fd0a4f28419497f9722a3daafe3b4186f6b6457e09190a35050565b610737806100896000396000f3fe608060405234801561001057600080fd5b50600436106100935760003560e01c80638da5cb5b116100665780638da5cb5b146100f1578063b910b66414610106578063bbfcfc1e14610119578063bc1389c81461012c578063f2fde38b1461014c57610093565b8063083d089d14610098578063563166a9146100ad578063715018a6146100d65780638cfc9347146100de575b600080fd5b6100ab6100a63660046104cf565b61015f565b005b6100c06100bb36600461050a565b6101db565b6040516100cd9190610625565b60405180910390f35b6100ab610208565b6100ab6100ec3660046104ae565b610253565b6100f96102b3565b6040516100cd91906105ed565b6100ab61011436600461050a565b6102c2565b6100ab6101273660046104ae565b610326565b61013f61013a3660046104cf565b61038c565b6040516100cd91906106e2565b6100ab61015a3660046104ae565b6103d2565b3360009081526001602052604090205460ff166101975760405162461bcd60e51b815260040161018e90610676565b60405180910390fd5b60008383836040516020016101ae93929190610601565b60408051601f19818403018152918152815160209283012060009081526002909252902043905550505050565b60006003826040516101ed91906105b4565b9081526040519081900360200190205460ff1690505b919050565b610210610443565b6001600160a01b03166102216102b3565b6001600160a01b0316146102475760405162461bcd60e51b815260040161018e906106ad565b6102516000610447565b565b61025b610443565b6001600160a01b031661026c6102b3565b6001600160a01b0316146102925760405162461bcd60e51b815260040161018e906106ad565b6001600160a01b03166000908152600160205260409020805460ff19169055565b6000546001600160a01b031690565b3360009081526001602052604090205460ff166102f15760405162461bcd60e51b815260040161018e90610676565b600160038260405161030391906105b4565b908152604051908190036020019020805491151560ff1990921691909117905550565b61032e610443565b6001600160a01b031661033f6102b3565b6001600160a01b0316146103655760405162461bcd60e51b815260040161018e906106ad565b6001600160a01b03166000908152600160208190526040909120805460ff19169091179055565b6000808484846040516020016103a493929190610601565b60408051808303601f1901815291815281516020928301206000908152600290925290205495945050505050565b6103da610443565b6001600160a01b03166103eb6102b3565b6001600160a01b0316146104115760405162461bcd60e51b815260040161018e906106ad565b6001600160a01b0381166104375760405162461bcd60e51b815260040161018e90610630565b61044081610447565b50565b3390565b600080546001600160a01b038381166001600160a01b0319831681178455604051919092169283917f8be0079c531659141344cd1fd0a4f28419497f9722a3daafe3b4186f6b6457e09190a35050565b80356001600160a01b038116811461020357600080fd5b6000602082840312156104bf578081fd5b6104c882610497565b9392505050565b6000806000606084860312156104e3578182fd5b6104ec84610497565b92506104fa60208501610497565b9150604084013590509250925092565b60006020828403121561051b578081fd5b813567ffffffffffffffff80821115610532578283fd5b818401915084601f830112610545578283fd5b813581811115610557576105576106eb565b604051601f8201601f19908116603f0116810190838211818310171561057f5761057f6106eb565b81604052828152876020848701011115610597578586fd5b826020860160208301379182016020019490945295945050505050565b60008251815b818110156105d457602081860181015185830152016105ba565b818111156105e25782828501525b509190910192915050565b6001600160a01b0391909116815260200190565b6001600160a01b039384168152919092166020820152604081019190915260600190565b901515815260200190565b60208082526026908201527f4f776e61626c653a206e6577206f776e657220697320746865207a65726f206160408201526564647265737360d01b606082015260800190565b6020808252601f908201527f5468652063616c6c6572206973206e6f7420612072656769737472616e742e00604082015260600190565b6020808252818101527f4f776e61626c653a2063616c6c6572206973206e6f7420746865206f776e6572604082015260600190565b90815260200190565b634e487b7160e01b600052604160045260246000fdfea2646970667358221220cc075fa98787c516eff588988fae54f556dc3dc60d7d1ddc2e029012fb610b4864736f6c63430008010033",
  "linkReferences": {},
  "deployedLinkReferences": {}
}